:100000000C942A000C9447000C9447000C9489101F
:100010000C9447000C9447000C9447000C946D120C
:100020000C9447000C943A120C9447000C9447002F
:100030000C9447000C947D140C9447000C944700DA
:100040000C9447000C9447000C9447000C94470014
:100050000C94470011241FBECFE5D8E0DEBFCDBF12
:1000600011E0A0E6B0E0E0E6FDE202C005900D92EE
:10007000A638B107D9F711E0A6E8B1E001C01D929A
:10008000A43AB107E1F70E94F1100C94AE160C945B
:100090000000EF92FF920F931F937B018C0120E0F1
:1000A00030E040E05FE40E94490388238CF0C801FF
:1000B000B70120E030E040E05FE40E94C1010E940F
:1000C00007049B01AC01205030404040504806C01E
:1000D000C801B7010E9407049B01AC01B901CA0124
:1000E0001F910F91FF90EF900895A0E0B0E0EBE733
:1000F000F0E00C947716DC012B01FA019C91923010
:1001000008F439C1EB018881823008F433C194309E
:1001100069F4843009F02FC111969C91119789815F
:10012000981709F428C1A0E6B0E025C1843009F48D
:1001300021C18230A9F4923009F01DC19A01AD01AC
:1001400088E0EA010990AE01E90109929E0181501F
:10015000C1F7E201898111969C918923818308C1AD
:10016000923009F407C112962D903C901397EB0141
:100170008A819B811496AD90BD90CD90DC901797AD
:10018000EC80FD800E811F819101281B390BB90184
:1001900037FF04C066277727621B730B6032710537
:1001A0000CF061C0121613066CF537014801062EDB
:1001B00004C096948794779467940A94D2F721E0C8
:1001C00030E040E050E004C0220F331F441F551FB1
:1001D0006A95D2F721503040404050402E213F21B7
:1001E00040235123211531054105510521F021E01E
:1001F00030E040E050E079018A01E628F72808293C
:1002000019293CC0232BD1F1260E371E350146019A
:10021000062E04C096948794779467940A94D2F734
:1002200021E030E040E050E004C0220F331F441FC3
:10023000551F6A95D2F721503040404050402A2146
:100240003B214C215D21211531054105510521F04E
:1002500021E030E040E050E059016A01A628B728CB
:10026000C828D9280BC0821593052CF01C01AA249C
:10027000BB24650103C0EE24FF24870111969C91E5
:10028000D20111968C91981709F445C0992339F041
:10029000A80197012A193B094C095D0906C0A6016E
:1002A00095012E193F09400B510B57FD08C01182D3
:1002B0003382228224833583468357831DC081E0A5
:1002C00081833382228288279927DC01821B930B4A
:1002D000A40BB50B84839583A683B7830DC0220F2F
:1002E000331F441F551F24833583468357838281E0
:1002F000938101979383828324813581468157813D
:10030000DA01C9010197A109B1098F5F9F4FAF4F72
:10031000BF4328F30BC0918333822282EA0CFB1C7B
:100320000C1D1D1DE482F5820683178383E0808304
:10033000248135814681578157FF1AC0C901AA27F8
:1003400097FDA095BA2F81709070A070B0705695EF
:10035000479537952795822B932BA42BB52B848318
:100360009583A683B7838281938101969383828349
:10037000DF0101C0D201CD01CDB7DEB7E2E10C94BF
:100380009316A0E2B0E0E7ECF1E00C9483166983E9
:100390007A838B839C832D833E834F835887E9E048
:1003A000EE2EF12CEC0EFD1ECE010196B7010E943F
:1003B0007F058E010F5E1F4FCE010596B8010E948A
:1003C0007F058A8991E089278A8BC701B801AE0130
:1003D000475E5F4F0E9475000E94AA04A096E6E067
:1003E0000C949F16A0E2B0E0E8EFF1E00C948316C5
:1003F00069837A838B839C832D833E834F835887C5
:10040000F9E0EF2EF12CEC0EFD1ECE010196B701A6
:100410000E947F058E010F5E1F4FCE010596B80129
:100420000E947F05C701B801AE01475E5F4F0E9481
:1004300075000E94AA04A096E6E00C949F16A0E224
:10044000B0E0E5E2F2E00C94771669837A838B835F
:100450009C832D833E834F835887CE010196BE0136
:10046000675F7F4F0E947F05CE010596BE016F5EDC
:100470007F4F0E947F059985923088F0898982306C
:10048000C8F0943019F4823051F404C0843029F457
:10049000923081F480E690E0C6C0923049F420E0CA
:1004A0009A858A89981321E02A87CE010996BBC0D4
:1004B000823049F420E09A858A89981321E02A8BBA
:1004C000CE014196B0C02D843E844F8458886D88FB
:1004D0007E888F88988CEE24FF248701AA24BB2471
:1004E000650140E050E060E070E0E0E0F0E0C10174
:1004F00081709070892BE9F0E60CF71C081D191D1E
:100500009A01AB012A0D3B1D4C1D5D1D80E090E062
:10051000A0E0B0E0E614F7040805190520F481E036
:1005200090E0A0E0B0E0BA01A901480F591F6A1F8E
:100530007B1FAA0CBB1CCC1CDD1C97FE08C081E0F5
:1005400090E0A0E0B0E0A82AB92ACA2ADB2A3196B6
:10055000E032F10549F0660C771C881C991C569412
:10056000479437942794C3CFFA85EA892B893C892D
:100570008B859C85280F391F2E5F3F4F17C0CA01FE
:1005800081709070892B61F016950795F794E79428
:1005900080E090E0A0E0B0E8E82AF92A0A2B1B2BC3
:1005A00076956795579547952F5F3F4F77FDE7CF36
:1005B0000CC0440F551F661F771F17FD4160EE0CDE
:1005C000FF1C001F111F21503040403090E05907A0
:1005D00090E0690790E4790760F32B8F3C8FDB0193
:1005E000CA018F779070A070B07080349105A1051A
:1005F000B10561F447FD0AC0E114F10401051105DC
:1006000029F0405C5F4F6F4F7F4F40781A8EFE1786
:1006100011F081E08A8F4D8F5E8F6F8F78A383E01A
:10062000898FCE0149960E94AA04A096E2E10C941B
:100630009316A8E1B0E0EFE1F3E00C948316698330
:100640007A838B839C832D833E834F83588789E0F5
:10065000E82EF12CEC0EFD1ECE010196B7010E9492
:100660007F058E010F5E1F4FCE010596B8010E94D7
:100670007F058985823040F08989823028F0C70162
:10068000B8010E94F70501C08FEF6896E6E00C9470
:100690009F16A8E1B0E0EFE4F3E00C9483166983C1
:1006A0007A838B839C832D833E834F83588789E095
:1006B000E82EF12CEC0EFD1ECE010196B7010E9432
:1006C0007F058E010F5E1F4FCE010596B8010E9477
:1006D0007F058985823040F08989823028F0C70102
:1006E000B8010E94F70501C08FEF6896E6E00C9410
:1006F0009F16A8E1B0E0EFE7F3E00C94831669835E
:100700007A838B839C832D833E834F83588789E034
:10071000E82EF12CEC0EFD1ECE010196B7010E94D1
:100720007F058E010F5E1F4FCE010596B8010E9416
:100730007F058985823040F08989823028F0C701A1
:10074000B8010E94F70501C081E06896E6E00C94CC
:100750009F16A8E0B0E0EFEAF3E00C9480169B014E
:10076000AC0183E08983DA01C9018827B7FD83954D
:100770009927AA27BB27B82E211531054105510518
:1007800019F482E089833AC08823A9F0203080E000
:10079000380780E0480780E8580729F460E070E0F7
:1007A00080E09FEC30C0EE24FF248701E21AF30AB8
:1007B000040B150B02C079018A018EE1C82ED12CE1
:1007C000DC82CB82ED82FE820F831887C801B701DD
:1007D0000E945B0401971816190684F4082E04C0C1
:1007E000EE0CFF1C001F111F0A94D2F7ED82FE824F
:1007F0000F831887C81AD90ADC82CB82BA82CE014D
:1008000001960E94AA042896E9E00C949C16ACE09C
:10081000B0E0EDE0F4E00C94871669837A838B8373
:100820009C83CE010196BE016B5F7F4F0E947F05C6
:100830008D81823061F1823050F1843021F48E81DB
:10084000882351F12EC02F81388537FD20C06E815D
:100850002F3131051CF06623F9F023C08EE190E0C2
:10086000821B930B29853A854B855C8504C0569580
:100870004795379527958A95D2F76623B1F050951D
:100880004095309521953F4F4F4F5F4F0EC020E070
:1008900030E040E050E009C02FEF3FEF4FEF5FE75F
:1008A00004C020E030E040E050E8B901CA012C96D5
:1008B000E2E00C94A316EF92FF920F931F937B013B
:1008C0008C0180E0E81680E0F80681E0080780E00F
:1008D000180788F48FEFE816F1040105110531F0CF
:1008E00028F088E090E0A0E0B0E017C080E090E061
:1008F000A0E0B0E012C080E0E81680E0F80680E0FA
:10090000080781E0180728F088E190E0A0E0B0E057
:1009100004C080E190E0A0E0B0E020E230E040E000
:1009200050E0281B390B4A0B5B0B04C0169507954A
:10093000F794E7948A95D2F7F701E859FF4F808141
:10094000281B310941095109C9011F910F91FF90DD
:10095000EF900895DF92EF92FF920F931F93FC01A7
:10096000E480F58006811781D1808081823048F44F
:1009700080E090E0A0E1B0E0E82AF92A0A2B1B2BE6
:10098000A5C0843009F49FC0823021F4EE24FF24F6
:10099000870105C0E114F1040105110519F4E0E037
:1009A000F0E096C0628173819FEF623879070CF0A6
:1009B0005BC022E83FEF261B370B2A3131052CF0B4
:1009C00020E030E040E050E02AC0B801A701022E4C
:1009D00004C076956795579547950A94D2F781E0BC
:1009E00090E0A0E0B0E004C0880F991FAA1FBB1FD1
:1009F0002A95D2F70197A109B1098E219F21A02341
:100A0000B1230097A105B10521F081E090E0A0E0BD
:100A1000B0E09A01AB01282B392B4A2B5B2BDA0172
:100A2000C9018F779070A070B07080349105A105D6
:100A3000B10539F427FF09C0205C3F4F4F4F5F4F8E
:100A400004C0215C3F4F4F4F5F4FE0E0F0E02030AB
:100A5000A0E03A07A0E04A07A0E45A0710F0E1E05E
:100A6000F0E079018A0127C06038710564F5FB0167
:100A7000E158FF4FD801C7018F779070A070B07018
:100A800080349105A105B10539F4E7FE0DC080E47D
:100A900090E0A0E0B0E004C08FE390E0A0E0B0E020
:100AA000E80EF91E0A1F1B1F17FF05C016950795B4
:100AB000F794E794319687E016950795F794E794B5
:100AC0008A95D1F705C0EE24FF248701EFEFF0E00F
:100AD0006E2F679566276795902F9F77D794DD24B3
:100AE000D7948E2F8695492F462B582F5D29B70115
:100AF000CA011F910F91FF90EF90DF900895FC01C4
:100B0000DB01408151812281622F6F7770E0221FCB
:100B10002227221F9381892F880F822B282F30E0D4
:100B2000991F9927991F11969C93119721153105AB
:100B3000A9F5411551056105710511F482E037C031
:100B400082E89FEF13969C938E9312979A01AB01C4
:100B500067E0220F331F441F551F6A95D1F783E0CA
:100B60008C930DC0220F331F441F551F12968D9179
:100B70009C911397019713969C938E931297203014
:100B800080E0380780E0480780E4580758F314965F
:100B90002D933D934D935C93179708952F3F310507
:100BA00079F4411551056105710519F484E08C93C0
:100BB000089564FF03C081E08C9312C01C9210C0A2
:100BC0002F57304013963C932E93129783E08C93CB
:100BD00087E0440F551F661F771F8A95D1F7706411
:100BE00014964D935D936D937C93179708951F937F
:100BF000DC01FB019C91923008F447C08081823077
:100C000008F443C0943051F411961C91843099F546
:100C10008181682F70E0611B71093FC0843021F031
:100C2000923031F48230B9F18181882389F12DC06D
:100C300011961C9111978230F1F081811817D9F427
:100C400012962D913C91139782819381821793077D
:100C500094F028173907BCF014968D919D910D9052
:100C6000BC91A02D248135814681578128173907F1
:100C70004A075B0718F4112341F00AC08217930753
:100C8000A407B50740F4112319F061E070E005C036
:100C90006FEF7FEF02C060E070E0CB011F9108951D
:100CA000DF93CF93CDB7DEB76A970FB6F894DEBF68
:100CB0000FBECDBF1092A10184E08093A20185EF09
:100CC0009AE09A83898383E39BE09C838B83CE01A4
:100CD00001960E94D3130E94CE1081E79BE00E94F0
:100CE000BC1010929E0185E080939101CE01059683
:100CF0009A8B898BEDE6F1E0FC8BEB8BF7E0FD8BBB
:100D0000EB89FC8900808B899C8901969C8B8B8B5D
:100D1000E989FA89008289899A8901969A8B898B57
:100D20009D8991509D8BED89EE2351F7CE0105965B
:100D30000E94C21485E49BE00E94B014CE010C9680
:100D40009F8B8E8BE8E6F1E0F98FE88FF5E0FA8F64
:100D5000E88DF98D0080888D998D0196998F888F07
:100D6000EE89FF8900828E899F8901969F8B8E8BE9
:100D70009A8D91509A8FEA8DEE2351F7CE010C9601
:100D80000E94EF130E94930B0E94721183E08093E4
:100D90009F0183E08093A00178946A960FB6F8943F
:100DA000DEBF0FBECDBFCF91DF910895DF93CF930C
:100DB000CDB7DEB726E931E089E090E0B9010E94C5
:100DC000750C809196018A3A21F0809196018F3FAF
:100DD000C1F4809196018F3F51F481E08093A1018D
:100DE00081E00E94761582E00E94761512C085E0AF
:100DF0008093A10181E00E94761587E00E9476151C
:100E000008C01092A10180E00E9476158EEE0E942B
:100E10007615CF91DF910895DF93CF93CDB7DEB7ED
:100E200083E08093A00180919E018823E1F380916B
:100E300099018230B1F40E94070ADC01CB01809352
:100E4000920190939301A0939401B093950182E055
:100E50008093A10181E00E9476158EEE0E947615A6
:100E600009C081E08093A10180E00E94761582E0B4
:100E70000E94761510929E01CF91DF910895DF9325
:100E8000CF9300D000D0CDB7DEB780919201909182
:100E90009301A0919401B091950189839A83AB83CA
:100EA000BC8380919E018823E1F380919901833076
:100EB000E9F50E94070ADC01CB018093920190932F
:100EC0009301A0939401B0939501209192013091E8
:100ED0009301409194015091950189819A81AB8150
:100EE000BC81281739074A075B0751F483E08093D8
:100EF000A10181E00E94761584E00E9476151FC052
:100F000089819A81AB81BC818093920190939301F6
:100F1000A0939401B093950184E08093A10181E0B6
:100F20000E94761585E00E94761509C082E08093C4
:100F3000A10180E00E94761583E00E947615109250
:100F40009E010F900F900F900F90CF91DF91089519
:100F5000DF93CF9300D000D000D0CDB7DEB781E0D3
:100F6000898310929F010E94AD0A8AEA80939601BC
:100F70000E94590ADC01CB018A839B83AC83BD8329
:100F80009E012A5F3F4F89E090E0B9010E94750CF5
:100F900020919201309193014091940150919501DB
:100FA0008A819B81AC81BD8182179307A407B50715
:100FB00079F49E8180919601981751F485E0809391
:100FC000A10181E00E9476158EEE0E94761549C03F
:100FD00089818F5F89838981833009F03EC00E94B7
:100FE000AD0A8AEA809396010E94590ADC01CB017E
:100FF0008A839B83AC83BD839E012A5F3F4F89E038
:1010000090E0B9010E94750C2091920130919301FA
:1010100040919401509195018A819B81AC81BD8161
:1010200082179307A407B50779F49E8180919601F2
:10103000981751F485E08093A10181E00E94761514
:101040008EEE0E9476150DC083E08093A10180E0B2
:101050000E94761584E00E9476158981833008F419
:1010600082CF26960FB6F894DEBF0FBECDBFCF91CC
:10107000DF910895DF93CF93CDB7DEB780919E01C6
:101080008823E1F3809199018530E9F480919F01F3
:10109000815080939F0180919F01882351F082E0CD
:1010A0008093A10181E00E94761583E00E9476156D
:1010B00013C081E08093A10181E00E94761582E057
:1010C0000E94761509C084E08093A10180E00E940F
:1010D000761585E00E94761510929E01CF91DF91E2
:1010E0000895DF93CF9300D000D0CDB7DEB719823B
:1010F0001A821B821C82109292011092930110920C
:1011000094011092950180919E018823E1F38091D2
:101110009901873009F04FC00E94590ADC01CB01C8
:101120008093920190939301A0939401B0939501C1
:101130000E94070ADC01CB0189839A83AB83BC83BD
:101140002091920130919301409194015091950129
:1011500089819A81AB81BC81281739074A075B07CF
:1011600069F483E08093A00186E08093A10181E08F
:101170000E94761588E00E94761526C08091A00115
:1011800081508093A0018091A001882351F08AE0D2
:101190008093A10181E00E9476158CE00E94761573
:1011A00013C08BE08093A10181E00E9476158DE051
:1011B0000E94761509C085E08093A10180E00E941D
:1011C000761587E00E94761510929E010F900F9081
:1011D0000F900F90CF91DF910895DF93CF9300D0C0
:1011E0000F92CDB7DEB780919E018823E1F3809105
:1011F0009901883039F580919A0189838981282F56
:1012000030E03B832A838A819B818B32910531F0C8
:101210002A813B812D32310559F01DC087E0809332
:10122000A10181E00E94761589E00E94761513C025
:1012300081E08093A10181E00E94761582E00E9406
:10124000761509C086E08093A10180E00E947615A2
:1012500088E00E94761510929E010F900F900F90DB
:10126000CF91DF910895DF93CF93CDB7DEB7809113
:101270009E018823E1F380919901893089F481E00E
:1012800064E60E94A51183E00E941E1388E080930B
:10129000A10181E00E9476158EEE0E94761509C0AC
:1012A00087E08093A10180E00E94761589E00E948A
:1012B000761510929E01CF91DF910895DF93CF9321
:1012C000CDB7DEB780919E018823E1F3809199012B
:1012D0008A3089F480E060E00E94A51181E00E94DC
:1012E0001E1389E08093A10181E00E9476158EEEA5
:1012F0000E94761509C088E08093A10180E00E94D9
:1013000076158AE00E94761510929E01CF91DF91AA
:101310000895DF93CF93CDB7DEB780919E018823E8
:10132000E1F3809199018B30A9F482E064E60E9498
:10133000A51183E00E941E1380E060E00E94A511C9
:1013400085E08093A10181E00E9476158EEE0E94D7
:10135000761509C089E08093A10180E00E9476158E
:101360008BE00E94761510929E01CF91DF91089537
:10137000DF93CF93CDB7DEB780919E018823E1F351
:10138000809199018C3051F485E08093A10181E036
:101390000E9476158EEE0E94761509C08AE0809331
:1013A000A10180E00E9476158CE00E9476151092D3
:1013B0009E01CF91DF910895DF93CF93CDB7DEB734
:1013C00080919E018823E1F3809199018D3089F409
:1013D0000E94B00B8AE00E941E130E94A40B85E0BD
:1013E0008093A10181E00E9476158EEE0E94761511
:1013F00009C08BE08093A10180E00E9476158DE00A
:101400000E94761510929E01CF91DF910895DF938F
:10141000CF9300D000D000D0CDB7DEB719821A82AA
:101420001B821C8281E08E8332C08E81882F90E0E7
:10143000FC01E756FE4F80818D838D81482F50E05F
:1014400060E070E08E81282F30E084E090E0821B25
:10145000930B880F991F880F991F880F991F9A0166
:10146000AB0104C0220F331F441F551F8A95D2F7CA
:1014700089819A81AB81BC81822B932BA42BB52BC4
:1014800089839A83AB83BC838E818F5F8E838E81A9
:10149000853058F289819A81AB81BC81BC01CD0134
:1014A00026960FB6F894DEBF0FBECDBFCF91DF9169
:1014B0000895DF93CF9300D000D000D0CDB7DEB732
:1014C00019821A821B821C8281E08D8334C08D8137
:1014D000882F90E009969E012A5F3F4FB9010E9434
:1014E000750C8E81482F50E060E070E08D81282FD0
:1014F00030E084E090E0821B930B880F991F880FE7
:10150000991F880F991F9A01AB0104C0220F331F46
:10151000441F551F8A95D2F789819A81AB81BC817E
:10152000822B932BA42BB52B89839A83AB83BC830B
:101530008D818F5F8D838D81853048F289819A817D
:10154000AB81BC81BC01CD0126960FB6F894DEBFFD
:101550000FBECDBFCF91DF9108950F931F93DF93FF
:10156000CF9300D00F92CDB7DEB78AEA898381E0AE
:101570008B832BC040919201509193016091940113
:10158000709195018B81282F30E084E090E0821BE0
:10159000930B880F991F880F991F880F991F8A0135
:1015A0009B0104C036952795179507958A95D2F724
:1015B000D901C8018A838B81882F90E009966A81BE
:1015C0000E94BC0B8B818F5F8B838B81853090F267
:1015D00089E090E069810E94BC0B0F900F900F9002
:1015E000CF91DF911F910F910895DF93CF93CDB7E6
:1015F000DEB72B970FB6F894DEBF0FBECDBF0E94AB
:10160000B413CE01019698878F83E4E7F1E0FA875F
:10161000E987F6E0FB87E985FA85008089859A8568
:1016200001969A878987EF81F88500828F81988556
:10163000019698878F839B8591509B87EB85EE233E
:1016400051F7CE0101960E9442138091A30181506F
:101650008093A3012B960FB6F894DEBF0FBECDBFCB
:10166000CF91DF910895DF93CF93CDB7DEB780910F
:10167000A30181508093A3018091A301882311F4D9
:101680000E94B413CF91DF910895FF920F931F939F
:10169000DF93CF93CDB7DEB7F09086010F2D10E02A
:1016A0000E948D15F801E756FE4F80838F2D8F5FC6
:1016B0008093860180919101815080939101809166
:1016C0009101882341F481E080939E01109286016C
:1016D00085E080939101CF91DF911F910F91FF9051
:1016E0000895DF93CF93CDB7DEB789E090E06FEF39
:1016F0000E94BC0B8AE090E06FEF0E94BC0B8BE075
:1017000090E06FEF0E94BC0B8CE090E06FEF0E94C6
:10171000BC0B8DE090E06FEF0E94BC0B0C940000BE
:10172000CF91DF910895DF93CF93CDB7DEB781E0FE
:1017300066E041E00E944B0D81E066E040E00E94DF
:10174000360ECF91DF910895DF93CF93CDB7DEB7FB
:1017500081E066E040E00E94360ECF91DF9108956F
:10176000DF93CF93CDB7DEB781E066E041E00E9422
:10177000360ECF91DF910895DF93CF93CDB7DEB7CB
:1017800062970FB6F894DEBF0FBECDBF988B8F87E0
:10179000698B0E9416140E946E14883011F01A8A08
:1017A0009AC08F85988980709770880F892F881FBD
:1017B000990B9195806A0E9431140E946E148831B1
:1017C00011F01A8A88C08F850E9431140E946E140D
:1017D000883211F01A8A7FC089890E9431140E94D0
:1017E0006E14883211F01A8A76C00E94261480E0A6
:1017F00090E0A0E2B1E48B879C87AD87BE876B85C4
:101800007C858D859E8520E030E04AEF54E40E947F
:101810001F02DC01CB018F839887A987BA876F816C
:10182000788589859A8520E030E040E85FE30E9472
:10183000790388232CF481E090E09E838D833FC060
:101840006F81788589859A8520E03FEF4FE757E4DF
:101850000E94190318164CF56B857C858D859E8535
:1018600020E030E040E251E40E941F02DC01CB01A5
:10187000BC01CD010E944900DC01CB019E838D8318
:101880000FC088EC90E09C838B838B819C810197B7
:10189000F1F79C838B838D819E8101979E838D833D
:1018A0008D819E81009769F714C06F817885898545
:1018B0009A850E944900DC01CB019E838D838D8136
:1018C0009E819A83898389819A810197F1F79A830E
:1018D000898381E08A8B8A8962960FB6F894DEBF8D
:1018E0000FBECDBFCF91DF910895DF93CF93CDB7DA
:1018F000DEB763970FB6F894DEBF0FBECDBF988BEF
:101900008F877A8B698B0E9416140E946E14883020
:1019100011F01B8AB6C08F85988980709770880FE8
:10192000892F881F990B9195806A0E9431140E941B
:101930006E14883111F01B8AA4C08F850E94311467
:101940000E946E14883211F01B8A9BC00E941614EC
:101950000E946E14803111F01B8A93C08F85988984
:1019600080709770880F892F881F990B9195816AD5
:101970000E9431140E946E14803411F01B8A81C0C1
:101980000E945B14E989FA8980830E946E1488356D
:1019900011F01B8A76C00E94261480E090E0A0E23D
:1019A000B1E48B879C87AD87BE876B857C858D85F1
:1019B0009E8520E030E04AEF54E40E941F02DC01E3
:1019C000CB018F839887A987BA876F8178858985AE
:1019D0009A8520E030E040E85FE30E9479038823A5
:1019E0002CF481E090E09E838D833FC06F817885E9
:1019F00089859A8520E03FEF4FE757E40E9419035D
:101A000018164CF56B857C858D859E8520E030E031
:101A100040E251E40E941F02DC01CB01BC01CD0178
:101A20000E944900DC01CB019E838D830FC088ECAE
:101A300090E09C838B838B819C810197F1F79C8341
:101A40008B838D819E8101979E838D838D819E8165
:101A5000009769F714C06F81788589859A850E94FF
:101A60004900DC01CB019E838D838D819E819A8309
:101A7000898389819A810197F1F79A83898381E02B
:101A80008B8B8B8963960FB6F894DEBF0FBECDBFEC
:101A9000CF91DF910895DF93CF9300D000D00F92C4
:101AA000CDB7DEB789836A834B838A81883008F09B
:101AB000D5C08981843008F0D1C08981282F30E0D9
:101AC0003D832C838C819D818130910509F443C035
:101AD0002C813D81223031052CF48C819D81009731
:101AE00071F0BCC02C813D812230310509F45FC00A
:101AF0008C819D818330910509F485C0AFC08B81B5
:101B00008130A1F4AAE3B0E0EAE3F0E08081482F5D
:101B10008A81282F30E081E090E0022E02C0880FF9
:101B2000991F0A94E2F7842B8C9398C0AAE3B0E043
:101B3000EAE3F0E08081482F8A81282F30E081E0BD
:101B400090E0022E02C0880F991F0A94E2F7809558
:101B500084238C9383C08B818130A1F4A7E3B0E010
:101B6000E7E3F0E08081482F8A81282F30E081E090
:101B700090E0022E02C0880F991F0A94E2F7842B8E
:101B80008C936CC0A7E3B0E0E7E3F0E08081482FDE
:101B90008A81282F30E081E090E0022E02C0880F79
:101BA000991F0A94E2F7809584238C9357C08B8108
:101BB0008130A1F4A4E3B0E0E4E3F0E08081482FB9
:101BC0008A81282F30E081E090E0022E02C0880F49
:101BD000991F0A94E2F7842B8C9340C0A4E3B0E0F1
:101BE000E4E3F0E08081482F8A81282F30E081E013
:101BF00090E0022E02C0880F991F0A94E2F78095A8
:101C000084238C932BC08B818130A1F4A1E3B0E0BD
:101C1000E1E3F0E08081482F8A81282F30E081E0E5
:101C200090E0022E02C0880F991F0A94E2F7842BDD
:101C30008C9314C0A1E3B0E0E1E3F0E08081482F91
:101C40008A81282F30E081E090E0022E02C0880FC8
:101C5000991F0A94E2F7809584238C930F900F903C
:101C60000F900F900F90CF91DF910895DF93CF9356
:101C700000D000D00F92CDB7DEB789836A834B8343
:101C80008A81883008F0D5C08981843008F0D1C0BD
:101C90008981282F30E03D832C838C819D81813088
:101CA000910509F443C02C813D81223031052CF48B
:101CB0008C819D81009771F0BCC02C813D812230C8
:101CC000310509F45FC08C819D818330910509F451
:101CD00085C0AFC08B818130A1F4ABE3B0E0EBE312
:101CE000F0E08081482F8A81282F30E081E090E069
:101CF000022E02C0880F991F0A94E2F7842B8C935E
:101D000098C0ABE3B0E0EBE3F0E08081482F8A813C
:101D1000282F30E081E090E0022E02C0880F991F4A
:101D20000A94E2F7809584238C9383C08B81813061
:101D3000A1F4A8E3B0E0E8E3F0E08081482F8A81D5
:101D4000282F30E081E090E0022E02C0880F991F1A
:101D50000A94E2F7842B8C936CC0A8E3B0E0E8E32C
:101D6000F0E08081482F8A81282F30E081E090E0E8
:101D7000022E02C0880F991F0A94E2F780958423EF
:101D80008C9357C08B818130A1F4A5E3B0E0E5E3EB
:101D9000F0E08081482F8A81282F30E081E090E0B8
:101DA000022E02C0880F991F0A94E2F7842B8C93AD
:101DB00040C0A5E3B0E0E5E3F0E08081482F8A81F0
:101DC000282F30E081E090E0022E02C0880F991F9A
:101DD0000A94E2F7809584238C932BC08B81813009
:101DE000A1F4A2E3B0E0E2E3F0E08081482F8A8131
:101DF000282F30E081E090E0022E02C0880F991F6A
:101E00000A94E2F7842B8C9314C0A2E3B0E0E2E3DF
:101E1000F0E08081482F8A81282F30E081E090E037
:101E2000022E02C0880F991F0A94E2F7809584233E
:101E30008C930F900F900F900F900F90CF91DF9198
:101E40000895DF93CF9300D000D00F92CDB7DEB7C7
:101E50008A836B8319828B81883008F084C08A81E1
:101E6000843008F080C08A81282F30E03D832C83A5
:101E70004C815D814130510579F18C819D818230A9
:101E8000910534F42C813D812115310569F06BC039
:101E90004C815D8142305105B9F18C819D81833047
:101EA000910509F449C05FC0E9E3F0E08081282F83
:101EB00030E08B81882F90E0A90102C055954795AD
:101EC0008A95E2F7CA0181709070882319F081E049
:101ED000898349C0198247C0E6E3F0E08081282F5A
:101EE00030E08B81882F90E0A90102C0559547957D
:101EF0008A95E2F7CA0181709070882319F081E019
:101F0000898331C019822FC0E3E3F0E08081282F5C
:101F100030E08B81882F90E0A90102C0559547954C
:101F20008A95E2F7CA0181709070882319F081E0E8
:101F3000898319C0198217C0E0E3F0E08081282F5F
:101F400030E08B81882F90E0A90102C0559547951C
:101F50008A95E2F7CA0181709070882319F081E0B8
:101F6000898301C0198289810F900F900F900F9083
:101F70000F90CF91DF910895DF93CF9300D000D0E1
:101F8000CDB7DEB789836A838981843090F58981F2
:101F9000282F30E03C832B838B819C8181309105FD
:101FA000D1F02B813C81223031052CF48B819C8136
:101FB000009761F01EC02B813C812230310581F0F9
:101FC0008B819C818330910581F013C0EAE3F0E0BE
:101FD0008A8180830EC0E7E3F0E08A81808309C0B4
:101FE000E4E3F0E08A81808304C0E1E3F0E08A81E9
:101FF00080830F900F900F900F90CF91DF910895F5
:10200000DF93CF9300D000D0CDB7DEB789836A834A
:102010008981843090F58981282F30E03C832B839F
:102020008B819C8181309105D1F02B813C812230C4
:1020300031052CF48B819C81009761F01EC02B81AF
:102040003C812230310581F08B819C818330910568
:1020500081F013C0EBE3F0E08A8180830EC0E8E3F7
:10206000F0E08A81808309C0E5E3F0E08A81808323
:1020700004C0E2E3F0E08A8180830F900F900F901C
:102080000F90CF91DF910895DF93CF9300D000D0D0
:10209000CDB7DEB78A8319828A81843090F58A8130
:1020A000282F30E03C832B838B819C8181309105EC
:1020B000D1F02B813C81223031052CF48B819C8125
:1020C000009761F01EC02B813C812230310581F0E8
:1020D0008B819C818330910581F013C0E9E3F0E0AE
:1020E000808189830EC0E6E3F0E08081898309C0A6
:1020F000E3E3F0E08081898304C0E0E3F0E08081E5
:10210000898389810F900F900F900F90CF91DF916D
:1021100008951F920F920FB60F9211242F933F93A1
:102120004F935F936F937F938F939F93AF93BF93DF
:10213000EF93FF93DF93CF93CDB7DEB78091870105
:1021400090918801009729F0E0918701F091880132
:102150000995CF91DF91FF91EF91BF91AF919F9141
:102160008F917F916F915F914F913F912F910F9040
:102170000FBE0F901F901895DF93CF9300D0CDB76F
:10218000DEB79A83898389819A81909388018093AD
:1021900087010F900F90CF91DF910895DF93CF9338
:1021A000CDB7DEB7A7E3B0E0E7E3F0E080818B7F57
:1021B0008C93A8E3B0E0E8E3F0E0808184608C9346
:1021C000A4E5B0E0E4E5F0E0808180648C93ABE5C9
:1021D000B0E0EBE5F0E0808180628C93CF91DF91FD
:1021E0000895DF93CF9300D0CDB7DEB70E9450069D
:1021F0008091A101282F30E03A83298389819A8137
:102200008530910509F459C029813A81263031057C
:1022100004F589819A818230910509F445C02981AC
:102220003A812330310554F489819A810097B1F1C4
:1022300029813A8121303105A1F1DACF89819A8152
:1022400083309105A1F129813A812430310591F142
:10225000CFCF89819A8188309105C1F129813A8156
:10226000293031055CF489819A818630910541F1EC
:1022700029813A812730310531F1BACF89819A819C
:102280008A30910549F129813A812A3031050CF1D2
:1022900089819A818B30910511F1AACF0E94D606CF
:1022A000A7CF0E940C07A4CF0E943F07A1CF0E9496
:1022B000A8079ECF0E943A089BCF0E94710898CF32
:1022C0000E94ED0895CF0E94330992CF0E945E09CB
:1022D0008FCF0E9489098CCF0E94B80989CF0E94B4
:1022E000DC0986CFDF93CF93CDB7DEB781E063E023
:1022F00041E00E944B0D81E063E040E00E94360E19
:1023000081E064E041E00E944B0D81E064E040E048
:102310000E94360E81E065E041E00E944B0D81E0B5
:1023200065E040E00E94360E80E00E94FF111092AE
:10233000890110928A018091890190918A01692F07
:102340000E94A511CF91DF910895DF93CF9300D024
:1023500000D0CDB7DEB789836A83909189018981E6
:10236000891709F442C08981282F30E03C832B83F0
:102370008B819C818130910531F02B813C81223011
:10238000310591F022C08A810E94FF1181E064E052
:1023900041E00E94360E81E065E040E00E94360E8A
:1023A00081E08093890124C08A810E94FF1181E02D
:1023B00064E040E00E94360E81E065E041E00E946A
:1023C000360E82E08093890113C080E00E94FF11E5
:1023D00081E064E041E00E94360E81E065E041E08A
:1023E0000E94360E1092890103C08A810E94FF115B
:1023F0000F900F900F900F90CF91DF9108950F9352
:102400001F93DF93CF930F92CDB7DEB78983E2E5B9
:10241000F0E010820CE510E08981882F90E0AA2777
:1024200097FDA095BA2FBC01CD010E94A903DC0144
:10243000CB01BC01CD0123E333E343E250E40E942E
:102440001F02DC01CB01BC01CD010E944900DC016F
:10245000CB01F801808381E063E041E00E944B0DF5
:10246000E3E5F0E08AE680830F90CF91DF911F9142
:102470000F9108951F920F920FB60F9211242F9370
:102480003F934F935F936F937F938F939F93AF93FC
:10249000BF93EF93FF93DF93CF93CDB7DEB78091D8
:1024A0008B0190918C01009729F0E0918B01F091C4
:1024B0008C010995CF91DF91FF91EF91BF91AF9181
:1024C0009F918F917F916F915F914F913F912F914C
:1024D0000F900FBE0F901F9018951F920F920FB67E
:1024E0000F9211242F933F934F935F936F937F939A
:1024F0008F939F93AF93BF93EF93FF93DF93CF930C
:10250000CDB7DEB780918D0190918E01009729F0B3
:10251000E0918D01F0918E010995CF91DF91FF91AE
:10252000EF91BF91AF919F918F917F916F915F914B
:102530004F913F912F910F900FBE0F901F901895C4
:10254000DF93CF93CDB7DEB72C970FB6F894DEBFED
:102550000FBECDBF8F83CE01019699878887EAE7AA
:10256000F1E0FB87EA87F6E0FC87EA85FB850080DF
:102570008A859B8501969B878A87E885F9850082F5
:10258000888599850196998788879C8591509C8735
:10259000EC85EE2351F7CE0101960E9442138F8104
:1025A0008093A3018091A3018823E1F72C960FB6B5
:1025B000F894DEBF0FBECDBFCF91DF910895DF93BA
:1025C000CF93CDB7DEB72C970FB6F894DEBF0FBE12
:1025D000CDBF8F83CE01019699878887E0E8F1E02F
:1025E000FB87EA87F6E0FC87EA85FB8500808A8521
:1025F0009B8501969B878A87E885F9850082888577
:1026000099850196998788879C8591509C87EC8550
:10261000EE2351F7CE0101960E9442138F818093E1
:10262000A3018091A3018823E1F72C960FB6F894BB
:10263000DEBF0FBECDBFCF91DF910895DF93CF9363
:1026400000D00F92CDB7DEB789838091A201282FE9
:1026500030E03B832A838A819B81009731F02A8175
:102660003B812430310529F007C089810E94A012E6
:1026700003C089810E94DF120F900F900F90CF91BD
:10268000DF910895DF93CF9300D000D0CDB7DEB7B0
:102690009A838983ACE4B0E0E981FA8182819381F5
:1026A00011969C938E93E981FA818081282F30E0E6
:1026B0003C832B838B819C81009731F02B813C8163
:1026C00024303105A9F03DC0AFE4B0E0EFE4F0E024
:1026D0008081982F9C7FE981FA818081892B8C935E
:1026E000A9E5B0E0E9E5F0E0808184608C9329C041
:1026F000EFE4F0E08CE88083AEE4B0E0EEE4F0E0FC
:102700008081282F277EE981FA818081882F90E0BF
:10271000880F991F822B8C93AAE4B0E0E981FA819B
:102720008481958111969C938E9383E065E041E0CE
:102730000E944B0DA9E5B0E0E9E5F0E08081806101
:102740008C93AEE4B0E0EEE4F0E08081982F987FC7
:10275000E981FA818181892B8C930F900F900F90E2
:102760000F90CF91DF910895DF93CF93CDB7DEB770
:10277000E9E5F0E01082EEE4F0E01082ECE4F0E055
:1027800011821082EFE4F0E01082EEE4F0E01082BB
:10279000EAE4F0E011821082E8E4F0E011821082B5
:1027A000CF91DF910895DF93CF9300D0CDB7DEB7FF
:1027B0009A838983E981FA818081918190938C0148
:1027C00080938B01E981FA818281938190938E01BC
:1027D00080938D010F900F90CF91DF910895DF933B
:1027E000CF9300D0CDB7DEB79A83898320E230E063
:1027F000E981FA8181819281A381B481F901808389
:10280000E1E2F0E01082A2E2B0E0E981FA818081A9
:10281000882F90E0880F991F8C93E6E5F0E084E024
:1028200080830F900F90CF91DF910895DF93CF9326
:10283000CDB7DEB7E6E5F0E084EA8083E6E5F0E0D8
:1028400080818823DCF7CF91DF910895DF93CF93C8
:10285000CDB7DEB7E6E5F0E084E98083CF91DF9184
:102860000895DF93CF930F92CDB7DEB78983E3E26C
:10287000F0E089818083E6E5F0E084E88083E6E5A6
:10288000F0E080818823DCF70F90CF91DF910895ED
:10289000DF93CF93CDB7DEB7E6E5F0E084EC80833D
:1028A000E6E5F0E080818823DCF7E3E2F0E0808178
:1028B000CF91DF910895DF93CF93CDB7DEB7E6E5F3
:1028C000F0E084E88083E6E5F0E080818823DCF7AF
:1028D000E3E2F0E08081CF91DF910895DF93CF9321
:1028E0000F92CDB7DEB7E1E2F0E08081887F898387
:1028F00089810F90CF91DF9108951F920F920FB6AB
:102900000F9211242F933F934F935F936F937F9375
:102910008F939F93AF93BF93EF93FF93DF93CF93E7
:10292000CDB7DEB780918F0190919001009729F08B
:10293000E0918F01F09190010995CF91DF91FF9186
:10294000EF91BF91AF919F918F917F916F915F9127
:102950004F913F912F910F900FBE0F901F901895A0
:10296000DF93CF9300D0CDB7DEB79A838983898177
:102970009A819093900180938F010F900F90CF9147
:10298000DF910895DF93CF93CDB7DEB72B970FB6C6
:10299000F894DEBF0FBECDBF9D838C83ABE2B0E069
:1029A000EBE2F0E0808182608C93EAE2F0E088E97B
:1029B00080831B8280E88B83EC81FD818081282FBE
:1029C00030E03B872A878A859B8582309105F1F02C
:1029D0002A853B852330310554F48A859B850097F1
:1029E00001F12A853B852130310561F01AC08A85C5
:1029F0009B858330910571F02A853B852730310511
:102A000069F00FC08B8182608B830BC08B818460E7
:102A10008B8307C08B8186608B8303C08B8186602C
:102A20008B83EC81FD818181282F30E039872887D5
:102A3000888599858230910531F028853985233044
:102A4000310529F007C08B8180628B8303C08B81A5
:102A500080638B83EC81FD818281282F30E03F836E
:102A60002E838E819F81009741F02E813F812130FE
:102A7000310519F48B8188608B83E0E4F0E08B8171
:102A80008083EC81FD8183819481A581B681880F4B
:102A9000991FAA1FBB1F880F991FAA1FBB1F880F52
:102AA000991FAA1FBB1F9C01AD0180E092E1AAE71C
:102AB000B0E0BC01CD010E945516DA01C9010197B1
:102AC0009A838983E0E4F0E089819A81892F9927AC
:102AD0008083E9E2F0E0898180832B960FB6F89439
:102AE000DEBF0FBECDBFCF91DF910895DF93CF93AF
:102AF0000F92CDB7DEB78983EBE2F0E08081882FBB
:102B000090E0807290700097B9F3ECE2F0E0898178
:102B100080830F90CF91DF910895DF93CF93CDB74E
:102B2000DEB7EBE2F0E080818823DCF7ECE2F0E056
:102B30008081CF91DF910895DF93CF9300D00F92E2
:102B4000CDB7DEB79B838A8319820EC08981282F77
:102B500030E08A819B81FC01E20FF31F80810E949B
:102B6000761589818F5F89838981282F30E08A815A
:102B70009B81FC01E20FF31F8081882339F70F90BE
:102B80000F900F90CF91DF9108950F931F93DF93D4
:102B9000CF9300D00F92CDB7DEB79B838A83198283
:102BA0008981282F30E08A819B818C01020F131FBD
:102BB0000E948D15F80180830FC089818F5F898302
:102BC0008981282F30E08A819B818C01020F131F9D
:102BD0000E948D15F80180838981282F30E08A8139
:102BE0009B81FC01E20FF31F8081833231F78981E1
:102BF000282F30E08A819B81FC01E20FF31F1082B5
:102C00000F900F900F90CF91DF911F910F9108952A
:102C1000DF93CF9300D000D0CDB7DEB79B838A83FC
:102C20006C8319820EC08981282F30E08A819B81B4
:102C3000FC01E20FF31F80810E94761589818F5F6E
:102C4000898399818C81981770F30F900F900F9062
:102C50000F90CF91DF9108950F931F93DF93CF9340
:102C600000D000D0CDB7DEB79B838A836C831982F6
:102C70000FC08981282F30E08A819B818C01020F4F
:102C8000131F0E948D15F801808389818F5F8983CE
:102C900099818C81981768F30F900F900F900F9087
:102CA000CF91DF911F910F910895A1E21A2EAA1BD7
:102CB000BB1BFD010DC0AA1FBB1FEE1FFF1FA217EC
:102CC000B307E407F50720F0A21BB30BE40BF50BE9
:102CD000661F771F881F991F1A9469F76095709572
:102CE000809590959B01AC01BD01CF0108952F9275
:102CF0003F924F925F926F927F928F929F92AF928C
:102D0000BF92CF92DF92EF92FF920F931F93CF93D8
:102D1000DF93CDB7DEB7CA1BDB0B0FB6F894DEBF6F
:102D20000FBECDBF09942A88398848885F846E8495
:102D30007D848C849B84AA84B984C884DF80EE80DF
:102D4000FD800C811B81AA81B981CE0FD11D0FB6E8
:102D5000F894DEBF0FBECDBFED010895F894FFCF0C
:102D60000000000000000000000102020303030352
:102D7000040404040404040405050505050505050B
:102D800005050505050505050606060606060606EB
:102D900006060606060606060606060606060606D3
:102DA00006060606060606060707070707070707BB
:102DB00007070707070707070707070707070707A3
:102DC0000707070707070707070707070707070793
:102DD0000707070707070707070707070707070783
:102DE000070707070707070708080808080808086B
:102DF0000808080808080808080808080808080853
:102E00000808080808080808080808080808080842
:102E10000808080808080808080808080808080832
:102E20000808080808080808080808080808080822
:102E30000808080808080808080808080808080812
:102E40000808080808080808080808080808080802
:102E500008080808080808080808080808080808F2
:102E600008080808080808080A801A060003020073
:102E7000802500000004ED8500000004ED850000C1
:062E800004040000127AB8
:00000001FF
