:100000000C942A000C9447000C9447000C94C20FE7
:100010000C9447000C9447000C9447000C94301744
:100020000C9447000C94FD160C9447000C94470068
:100030000C9447000C94B2180C9447000C944700A1
:100040000C9447000C9447000C9447000C94470014
:100050000C94470011241FBECFE5D8E0DEBFCDBF12
:1000600013E0A0E6B0E0E4E5F6E302C005900D92EF
:10007000A03AB107D9F713E0A0EAB3E001C01D929E
:10008000AB3BB107E1F70E947C160C94281B0C9443
:100090000000EF92FF920F931F937B018C0120E0F1
:1000A00030E040E05FE40E94490388238CF0C801FF
:1000B000B70120E030E040E05FE40E94C1010E940F
:1000C000A9039B01AC01205030404040504806C07D
:1000D000C801B7010E94A9039B01AC01B901CA0183
:1000E0001F910F91FF90EF900895A0E0B0E0EBE733
:1000F000F0E00C94AC1ADC012B01FA019C919230D7
:1001000008F439C1EB018881823008F433C194309E
:1001100069F4843009F02FC111969C91119789815F
:10012000981709F428C1AFE7B3E025C1843009F47A
:1001300021C18230A9F4923009F01DC19A01AD01AC
:1001400088E0EA010990AE01E90109929E0181501F
:10015000C1F7E201898111969C918923818308C1AD
:10016000923009F407C112962D903C901397EB0141
:100170008A819B811496AD90BD90CD90DC901797AD
:10018000EC80FD800E811F819101281B390BB90184
:1001900037FF04C066277727621B730B6032710537
:1001A0000CF061C0121613066CF537014801062EDB
:1001B00004C096948794779467940A94D2F721E0C8
:1001C00030E040E050E004C0220F331F441F551FB1
:1001D0006A95D2F721503040404050402E213F21B7
:1001E00040235123211531054105510521F021E01E
:1001F00030E040E050E079018A01E628F72808293C
:1002000019293CC0232BD1F1260E371E350146019A
:10021000062E04C096948794779467940A94D2F734
:1002200021E030E040E050E004C0220F331F441FC3
:10023000551F6A95D2F721503040404050402A2146
:100240003B214C215D21211531054105510521F04E
:1002500021E030E040E050E059016A01A628B728CB
:10026000C828D9280BC0821593052CF01C01AA249C
:10027000BB24650103C0EE24FF24870111969C91E5
:10028000D20111968C91981709F445C0992339F041
:10029000A80197012A193B094C095D0906C0A6016E
:1002A00095012E193F09400B510B57FD08C01182D3
:1002B0003382228224833583468357831DC081E0A5
:1002C00081833382228288279927DC01821B930B4A
:1002D000A40BB50B84839583A683B7830DC0220F2F
:1002E000331F441F551F24833583468357838281E0
:1002F000938101979383828324813581468157813D
:10030000DA01C9010197A109B1098F5F9F4FAF4F72
:10031000BF4328F30BC0918333822282EA0CFB1C7B
:100320000C1D1D1DE482F5820683178383E0808304
:10033000248135814681578157FF1AC0C901AA27F8
:1003400097FDA095BA2F81709070A070B0705695EF
:10035000479537952795822B932BA42BB52B848318
:100360009583A683B7838281938101969383828349
:10037000DF0101C0D201CD01CDB7DEB7E2E10C94BF
:10038000C81AA0E2B0E0E7ECF1E00C94B81A698377
:100390007A838B839C832D833E834F835887E9E048
:1003A000EE2EF12CEC0EFD1ECE010196B7010E943F
:1003B000D2048E010F5E1F4FCE010596B8010E9438
:1003C000D2048A8991E089278A8BC701B801AE01DE
:1003D000475E5F4F0E9475000E94FD03A096E6E015
:1003E0000C94D41AA0E2B0E0E8EFF1E00C94B81A53
:1003F00069837A838B839C832D833E834F835887C5
:10040000F9E0EF2EF12CEC0EFD1ECE010196B701A6
:100410000E94D2048E010F5E1F4FCE010596B801D7
:100420000E94D204C701B801AE01475E5F4F0E942F
:1004300075000E94FD03A096E6E00C94D41AA0E299
:10044000B0E0E5E2F2E00C94AC1A69837A838B8326
:100450009C832D833E834F835887CE010196BE0136
:10046000675F7F4F0E94D204CE010596BE016F5E8A
:100470007F4F0E94D2049985923088F0898982301A
:10048000C8F0943019F4823051F404C0843029F457
:10049000923081F48FE793E0C6C0923049F420E0B7
:1004A0009A858A89981321E02A87CE010996BBC0D4
:1004B000823049F420E09A858A89981321E02A8BBA
:1004C000CE014196B0C02D843E844F8458886D88FB
:1004D0007E888F88988CEE24FF248701AA24BB2471
:1004E000650140E050E060E070E0E0E0F0E0C10174
:1004F00081709070892BE9F0E60CF71C081D191D1E
:100500009A01AB012A0D3B1D4C1D5D1D80E090E062
:10051000A0E0B0E0E614F7040805190520F481E036
:1005200090E0A0E0B0E0BA01A901480F591F6A1F8E
:100530007B1FAA0CBB1CCC1CDD1C97FE08C081E0F5
:1005400090E0A0E0B0E0A82AB92ACA2ADB2A3196B6
:10055000E032F10549F0660C771C881C991C569412
:10056000479437942794C3CFFA85EA892B893C892D
:100570008B859C85280F391F2E5F3F4F17C0CA01FE
:1005800081709070892B61F016950795F794E79428
:1005900080E090E0A0E0B0E8E82AF92A0A2B1B2BC3
:1005A00076956795579547952F5F3F4F77FDE7CF36
:1005B0000CC0440F551F661F771F17FD4160EE0CDE
:1005C000FF1C001F111F21503040403090E05907A0
:1005D00090E0690790E4790760F32B8F3C8FDB0193
:1005E000CA018F779070A070B07080349105A1051A
:1005F000B10561F447FD0AC0E114F10401051105DC
:1006000029F0405C5F4F6F4F7F4F40781A8EFE1786
:1006100011F081E08A8F4D8F5E8F6F8F78A383E01A
:10062000898FCE0149960E94FD03A096E2E10C94C9
:10063000C81AA8E1B0E0EFE1F3E00C94B81A6983BE
:100640007A838B839C832D833E834F83588789E0F5
:10065000E82EF12CEC0EFD1ECE010196B7010E9492
:10066000D2048E010F5E1F4FCE010596B8010E9485
:10067000D2048985823040F08989823028F0C70110
:10068000B8010E944A0501C08FEF6896E6E00C941D
:10069000D41AA8E1B0E0EFE4F3E00C94B81A69834F
:1006A0007A838B839C832D833E834F83588789E095
:1006B000E82EF12CEC0EFD1ECE010196B7010E9432
:1006C000D2048E010F5E1F4FCE010596B8010E9425
:1006D000D2048985823040F08989823028F0C701B0
:1006E000B8010E944A0501C08FEF6896E6E00C94BD
:1006F000D41AA8E1B0E0EFE7F3E00C94B81A6983EC
:100700007A838B839C832D833E834F83588789E034
:10071000E82EF12CEC0EFD1ECE010196B7010E94D1
:10072000D2048E010F5E1F4FCE010596B8010E94C4
:10073000D2048985823040F08989823028F0C7014F
:10074000B8010E944A0501C081E06896E6E00C9479
:10075000D41AACE0B0E0EFEAF3E00C94BC1A698381
:100760007A838B839C83CE010196BE016B5F7F4FA2
:100770000E94D2048D81823061F1823050F1843048
:1007800021F48E81882351F12EC02F81388537FDC9
:1007900020C06E812F3131051CF06623F9F023C093
:1007A0008EE190E0821B930B29853A854B855C8511
:1007B00004C056954795379527958A95D2F76623B5
:1007C000B1F050954095309521953F4F4F4F5F4F79
:1007D0000EC020E030E040E050E009C02FEF3FEFD6
:1007E0004FEF5FE704C020E030E040E050E8B9019F
:1007F000CA012C96E2E00C94D81ADF92EF92FF9295
:100800000F931F93FC01E480F58006811781D1804E
:100810008081823048F480E090E0A0E1B0E0E82AF6
:10082000F92A0A2B1B2BA5C0843009F49FC0823003
:1008300021F4EE24FF24870105C0E114F104010531
:10084000110519F4E0E0F0E096C0628173819FEF3A
:10085000623879070CF05BC022E83FEF261B370BAC
:100860002A3131052CF020E030E040E050E02AC091
:10087000B801A701022E04C0769567955795479554
:100880000A94D2F781E090E0A0E0B0E004C0880FC5
:10089000991FAA1FBB1F2A95D2F70197A109B10979
:1008A0008E219F21A023B1230097A105B10521F03E
:1008B00081E090E0A0E0B0E09A01AB01282B392B59
:1008C0004A2B5B2BDA01C9018F779070A070B07052
:1008D00080349105A105B10539F427FF09C0205CDA
:1008E0003F4F4F4F5F4F04C0215C3F4F4F4F5F4F13
:1008F000E0E0F0E02030A0E03A07A0E04A07A0E402
:100900005A0710F0E1E0F0E079018A0127C0603871
:10091000710564F5FB01E158FF4FD801C7018F77DE
:100920009070A070B07080349105A105B10539F4C4
:10093000E7FE0DC080E490E0A0E0B0E004C08FE3EB
:1009400090E0A0E0B0E0E80EF91E0A1F1B1F17FFA1
:1009500005C016950795F794E794319687E01695AC
:100960000795F794E7948A95D1F705C0EE24FF2404
:100970008701EFEFF0E06E2F679566276795902F60
:100980009F77D794DD24D7948E2F8695492F462BB9
:10099000582F5D29B701CA011F910F91FF90EF9069
:1009A000DF900895FC01DB01408151812281622F9B
:1009B0006F7770E0221F2227221F9381892F880FD3
:1009C000822B282F30E0991F9927991F11969C930D
:1009D000119721153105A9F54115510561057105DD
:1009E00011F482E037C082E89FEF13969C938E93B8
:1009F00012979A01AB0167E0220F331F441F551F66
:100A00006A95D1F783E08C930DC0220F331F441FEA
:100A1000551F12968D919C911397019713969C9355
:100A20008E931297203080E0380780E0480780E4FA
:100A3000580758F314962D933D934D935C93179755
:100A400008952F3F310579F4411551056105710570
:100A500019F484E08C93089564FF03C081E08C93C3
:100A600012C01C9210C02F57304013963C932E9307
:100A7000129783E08C9387E0440F551F661F771F02
:100A80008A95D1F7706414964D935D936D937C9322
:100A9000179708951F93DC01FB019C91923008F495
:100AA00047C08081823008F443C0943051F41196DD
:100AB0001C91843099F58181682F70E0611B710968
:100AC0003FC0843021F0923031F48230B9F181811D
:100AD000882389F12DC011961C9111978230F1F075
:100AE00081811817D9F412962D913C911397828128
:100AF00093818217930794F028173907BCF0149656
:100B00008D919D910D90BC91A02D248135814681C0
:100B10005781281739074A075B0718F4112341F05A
:100B20000AC082179307A407B50740F4112319F0F0
:100B300061E070E005C06FEF7FEF02C060E070E041
:100B4000CB011F910895DF93CF93CDB7DEB76097A8
:100B50000FB6F894DEBF0FBECDBF1092B80384E08D
:100B60008093B9038FEF9BE09A8389838DE39CE0A8
:100B70009C838B83CE0101960E9496180E940710D9
:100B80008BE79CE00E94F50F1092B60382E0809301
:100B9000A903CE0105969D878C87E7E8F3E0FF87E0
:100BA000EE87F7E0F88BEE85FF8500808E859F85C8
:100BB00001969F878E87EC85FD8500828C859D85BB
:100BC00001969D878C8798899150988BE889EE23B0
:100BD00051F7CE0105960E94F7188FE49CE00E9421
:100BE000E5180E945111789460960FB6F894DEBF14
:100BF0000FBECDBFCF91DF910895DF93CF93CDB7D7
:100C0000DEB782E061E045E020E00E940B078091C2
:100C1000B803813031F480E00E94F90781E00E943E
:100C2000E117CF91DF910895DF93CF93CDB7DEB772
:100C300081E00E94F90781E00E94E11782E00E94B2
:100C4000F90782E00E94970782E061E00E94EB06CC
:100C5000CF91DF910895DF93CF93CDB7DEB783E0D7
:100C60000E94F90783E00E94970784E063E044E074
:100C700022E00E940B07CF91DF910895DF93CF937D
:100C8000CDB7DEB784E00E94F90781E00E94E1174A
:100C900085E063E00E94EB06CF91DF910895DF933A
:100CA000CF93CDB7DEB785E00E94F90781E00E94BF
:100CB000E11785E00E947B0783E062E041E024E0E9
:100CC0000E940B07CF91DF910895EF920F93DF936E
:100CD000CF93CDB7DEB786E00E94F90787E00E9488
:100CE000970788E06CE046E02AE00BE00F2EF5E085
:100CF000EF2EF02D0E943907CF91DF910F91EF90E9
:100D00000895DF93CF93CDB7DEB787E00E94F90750
:100D10000E94E40789E067E041E026E00E940B07BB
:100D2000CF91DF910895DF93CF93CDB7DEB788E001
:100D30000E94F90789E00E947B0788E067E00E9433
:100D4000EB06CF91DF910895DF93CF93CDB7DEB758
:100D500089E00E94F9078AE00E947B0789E068E049
:100D60000E94EB06CF91DF910895DF93CF93CDB72B
:100D7000DEB78AE00E94F9078BE00E947B0785E0DE
:100D800069E00E94EB06CF91DF910895DF93CF9346
:100D9000CDB7DEB78BE00E94F90781E00E94E11732
:100DA0008CE00E947B0785E06AE00E94EB06CF9111
:100DB000DF910895DF93CF93CDB7DEB78CE00E942B
:100DC000F9078DE00E947B0785E06BE00E94EB064F
:100DD000CF91DF910895DF93CF9300D00F92CDB7DD
:100DE000DEB789836A838091B6038823E1F380911B
:100DF000B403813019F489818B8302C08A818B838B
:100E00008B818093B8031092B6030F900F900F90D0
:100E1000CF91DF910895DF93CF9300D000D00F9250
:100E2000CDB7DEB789836A834B832C838091B60369
:100E30008823E1F38091B403813071F49091B5037C
:100E40008981981719F48A818D8302C08B818D83E3
:100E50008D818093B80303C08C818093B803109276
:100E6000B6030F900F900F900F900F90CF91DF91DE
:100E70000895EF920F93DF93CF93CDB7DEB7289706
:100E80000FB6F894DEBF0FBECDBF89836A834B8354
:100E90002C830D83EE828091B6038823E1F3809149
:100EA000B4038130C1F49091B5038981981769F03A
:100EB0009091B5038A81981719F48C818F8302C0B1
:100EC0008D818F838F81888702C08B8188878885F9
:100ED0008093B80303C08E818093B8031092B60349
:100EE00028960FB6F894DEBF0FBECDBFCF91DF912D
:100EF0000F91EF9008950F93DF93CF930F92CDB79B
:100F0000DEB789838981882F90E08830910519F4B4
:100F10000E94E40707C089816EEE4EEE2EEE0EEEC3
:100F20000E94D50B0F90CF91DF910F9108950F93F1
:100F30001F93DF93CF9300D00F92CDB7DEB78B8393
:100F40000E94130A8B818093AF0381E08A832CC0B7
:100F50004091AB035091AC036091AD037091AE032F
:100F60008A81282F30E084E090E0821B930B880F69
:100F7000991F880F991F880F991F8A019B0104C030
:100F800036952795179507958A95D2F7D901C80107
:100F900089838A81882F90E0FC01E155FC4F89818B
:100FA00080838A818F5F8A838A81853088F28FEA85
:100FB00093E065E00E943D1A0F900F900F90CF9143
:100FC000DF911F910F9108950F93DF93CF930F92AD
:100FD000CDB7DEB70E94C20B898388E069814EEEEF
:100FE0002EEE0EEE0E94D50B0F90CF91DF910F9158
:100FF0000895DF93CF9300D00F92CDB7DEB78983EA
:101000000E9472168981282F30E03B832A838A81CF
:101010009B818630910509F41AC12A813B812730D2
:10102000310524F58A819B818230910509F48BC0BA
:101030002A813B812330310564F48A819B810097AA
:1010400009F43FC02A813B812130310509F45AC09F
:10105000E4C18A819B818430910509F4B6C02A815C
:101060003B81253031050CF0D1C08EC08A819B8137
:101070008930910509F44EC12A813B812A3031051E
:101080006CF48A819B818730910509F401C12A8122
:101090003B812830310509F41CC1BFC18A819B8185
:1010A0008B30910509F478C12A813B812B303105C1
:1010B0000CF451C18A819B818C30910509F48DC15A
:1010C000ACC180E060E00E94F41580E690E00E94F0
:1010D000CB1581E060E00E94F41581E790E00E946A
:1010E000CB1582E060E00E94F41582E890E00E9457
:1010F000CB1583E060E00E94F41583E990E00E9444
:10110000CB158BC180E060E00E94F41584EA90E08A
:101110000E94CB1581E060E00E94F41585EB90E021
:101120000E94CB1582E060E00E94F41586EC90E00E
:101130000E94CB1583E060E00E94F41587ED90E0FB
:101140000E94CB156AC180E060E00E94F41588EE31
:1011500090E00E94CB1581E060E00E94F41589EFD9
:1011600090E00E94CB1582E060E00E94F4158AE0D6
:1011700091E00E94CB1583E060E00E94F4158BE1C2
:1011800091E00E94CB1549C180E060E00E94F41517
:101190008CE291E00E94CB1581E060E00E94F415A2
:1011A0008DE391E00E94CB1582E060E00E94F4158F
:1011B0008EE491E00E94CB1583E060E00E94F4157C
:1011C0008BE191E00E94CB1528C180E060E00E9495
:1011D000F4158FE591E00E94CB1581E060E00E945C
:1011E000F41580E791E00E94CB1582E060E00E9458
:1011F000F41581E891E00E94CB1583E060E00E9445
:10120000F41582E991E00E94CB1507C180E060E00F
:101210000E94F41583EA91E00E94CB1581E060E022
:101220000E94F41584EB91E00E94CB1582E060E00F
:101230000E94F41585EC91E00E94CB1583E060E0FC
:101240000E94F41586ED91E00E94CB15E6C080E087
:1012500060E00E94F41587EE91E00E94CB1581E0DA
:1012600060E00E94F41588EF91E00E94CB1582E0C7
:1012700060E00E94F41589E092E00E94CB1583E0C3
:1012800060E00E94F4158BE191E00E94CB15C5C08F
:1012900080E060E00E94F4158AE192E00E94CB15A4
:1012A00081E060E00E94F4158BE292E00E94CB1591
:1012B00082E060E00E94F4158CE392E00E94CB157E
:1012C00083E060E00E94F4158DE492E00E94CB156B
:1012D000A4C080E060E00E94F4158EE592E00E94D8
:1012E000CB1581E060E00E94F4158FE692E00E9449
:1012F000CB1582E060E00E94F41580E892E00E9445
:10130000CB1583E060E00E94F4158EE491E00E942A
:10131000CB1583C080E060E00E94F41581E992E083
:101320000E94CB1581E060E00E94F41582EA92E011
:101330000E94CB1582E060E00E94F41583EB92E0FE
:101340000E94CB1583E060E00E94F41584EC92E0EB
:101350000E94CB1562C080E060E00E94F41585ED2C
:1013600092E00E94CB1581E060E00E94F41586EEC9
:1013700092E00E94CB1582E060E00E94F41580E8C4
:1013800092E00E94CB1583E060E00E94F4158EE4A9
:1013900091E00E94CB1541C080E060E00E94F4150E
:1013A00087EF92E00E94CB1581E060E00E94F41587
:1013B00088E093E00E94CB1582E060E00E94F41583
:1013C00089E193E00E94CB1583E060E00E94F41570
:1013D0008AE293E00E94CB1520C080E060E00E948A
:1013E000F4158BE393E00E94CB1581E060E00E944E
:1013F000F4158CE493E00E94CB1582E060E00E943B
:10140000F4158DE593E00E94CB1583E060E00E9427
:10141000F4158EE693E00E94CB150F900F900F907D
:10142000CF91DF910895DF93CF93CDB7DEB7629769
:101430000FB6F894DEBF0FBECDBF1092AB03109273
:10144000AC031092AD031092AE0381E08F878DC183
:101450000E942A10888B8F85813019F4888988230F
:10146000F1F088898823F9F088898130E1F0888952
:101470008230C9F088898330B1F08889843099F04E
:101480008889853081F08889863069F0888987303D
:1014900051F08889883039F08889893021F08F852A
:1014A00081508F875FC18F85282F30E03A8B298B41
:1014B00049895A894230510509F43EC089899A897F
:1014C0008330910564F429893A892115310509F49D
:1014D000C1C049895A8941305105A1F0BBC08989F1
:1014E0009A898430910509F475C029893A89243094
:1014F00031050CF448C049895A894530510509F431
:1015000090C0A8C08889282F30E080E197E2AC0124
:10151000249FC001259F900D349F900D1124AA2770
:1015200097FDA095BA2F8093AB039093AC03A09343
:10153000AD03B093AE038EC08889282F30E088EECB
:1015400093E0AC01249FC001259F900D349F900D26
:1015500011249C01442737FD4095542F8091AB0303
:101560009091AC03A091AD03B091AE03820F931F95
:10157000A41FB51F8093AB039093AC03A093AD035E
:10158000B093AE0367C08889282F30E084E690E0EE
:10159000AC01249FC001259F900D349F900D112414
:1015A0009C01442737FD4095542F8091AB039091C7
:1015B000AC03A091AD03B091AE03820F931FA41FA3
:1015C000B51F8093AB039093AC03A093AD03B0938E
:1015D000AE0340C08889882F90E09C01220F331F02
:1015E000C901880F991F880F991F820F931F9C01B3
:1015F000442737FD4095542F8091AB039091AC0365
:10160000A091AD03B091AE03820F931FA41FB51F2D
:101610008093AB039093AC03A093AD03B093AE0360
:1016200019C08889282F30E040E050E08091AB035A
:101630009091AC03A091AD03B091AE03820F931FC4
:10164000A41FB51F8093AB039093AC03A093AD038D
:10165000B093AE038F85982F965F83E0692F0E9429
:10166000F4158889882F90E00E944F1680E090E062
:10167000A8E4B2E48B879C87AD87BE876B857C85A9
:101680008D859E8520E030E04AEF54E40E941F02E1
:10169000DC01CB018F839887A987BA876F81788512
:1016A00089859A8520E030E040E85FE30E94790375
:1016B00088232CF481E090E09E838D833FC06F816E
:1016C000788589859A8520E03FEF4FE757E40E94AF
:1016D000190318164CF56B857C858D859E8520E059
:1016E00030E040E251E40E941F02DC01CB01BC016A
:1016F000CD010E944900DC01CB019E838D830FC088
:1017000088EC90E09C838B838B819C810197F1F71F
:101710009C838B838D819E8101979E838D838D8198
:101720009E81009769F714C06F81788589859A85B5
:101730000E944900DC01CB019E838D838D819E81B7
:101740009A83898389819A810197F1F79A838983A2
:101750008F85982F965F83E0692F0E94F4158AE2A7
:101760000E94DC138F858F5F8F878F85863008F40A
:101770006FCE62960FB6F894DEBF0FBECDBFCF918D
:10178000DF910895DF93CF930F92CDB7DEB70E941C
:101790002A10898389818B3219F089818D32B9F7BA
:1017A00089810F90CF91DF9108950F93DF93CF93AD
:1017B00000D000D00F92CDB7DEB789836A834B8308
:1017C0002C830D8389818093AF038A818093B0033A
:1017D0008B818093B1038C818093B2038D81809340
:1017E000B3038FEA93E065E00E943D1A0F900F90DB
:1017F0000F900F900F90CF91DF910F910895DF938D
:10180000CF93CDB7DEB72B970FB6F894DEBF0FBEE0
:10181000CDBF0E947718CE01019698878F83EEE89E
:10182000F3E0FA87E987F6E0FB87E985FA8500802F
:1018300089859A8501969A878987EF81F885008244
:101840008F819885019698878F839B8591509B8780
:10185000EB85EE2351F7CE0101960E940518809189
:10186000BA0381508093BA032B960FB6F894DEBF6B
:101870000FBECDBFCF91DF910895DF93CF93CDB74A
:10188000DEB78091BA0381508093BA038091BA0386
:10189000882311F40E947718CF91DF910895FF9269
:1018A0000F931F93DF93CF93CDB7DEB7F090A003D4
:1018B0000F2D10E00E94C219F801EC54FC4F8083F8
:1018C0008F2D8F5F8093A0038091A9038150809317
:1018D000A9038091A903882341F481E08093B60392
:1018E0001092A00382E08093A903CF91DF911F9112
:1018F0000F91FF900895DF93CF93CDB7DEB70C948F
:101900000000CF91DF910895DF93CF9300D000D0F6
:101910000F92CDB7DEB789836A834B838A81883083
:1019200008F0D5C08981843008F0D1C08981282F82
:1019300030E03D832C838C819D818130910509F4B9
:1019400043C02C813D81223031052CF48C819D8156
:10195000009771F0BCC02C813D812230310509F423
:101960005FC08C819D818330910509F485C0AFC033
:101970008B818130A1F4AAE3B0E0EAE3F0E080815A
:10198000482F8A81282F30E081E090E0022E02C0AB
:10199000880F991F0A94E2F7842B8C9398C0AAE3CE
:1019A000B0E0EAE3F0E08081482F8A81282F30E020
:1019B00081E090E0022E02C0880F991F0A94E2F79E
:1019C000809584238C9383C08B818130A1F4A7E31D
:1019D000B0E0E7E3F0E08081482F8A81282F30E0F3
:1019E00081E090E0022E02C0880F991F0A94E2F76E
:1019F000842B8C936CC0A7E3B0E0E7E3F0E0808138
:101A0000482F8A81282F30E081E090E0022E02C02A
:101A1000880F991F0A94E2F7809584238C9357C00E
:101A20008B818130A1F4A4E3B0E0E4E3F0E08081B5
:101A3000482F8A81282F30E081E090E0022E02C0FA
:101A4000880F991F0A94E2F7842B8C9340C0A4E37B
:101A5000B0E0E4E3F0E08081482F8A81282F30E075
:101A600081E090E0022E02C0880F991F0A94E2F7ED
:101A7000809584238C932BC08B818130A1F4A1E3CA
:101A8000B0E0E1E3F0E08081482F8A81282F30E048
:101A900081E090E0022E02C0880F991F0A94E2F7BD
:101AA000842B8C9314C0A1E3B0E0E1E3F0E08081EB
:101AB000482F8A81282F30E081E090E0022E02C07A
:101AC000880F991F0A94E2F7809584238C930F90D6
:101AD0000F900F900F900F90CF91DF910895DF93AB
:101AE000CF9300D000D00F92CDB7DEB789836A8341
:101AF0004B838A81883008F0D5C08981843008F012
:101B0000D1C08981282F30E03D832C838C819D8139
:101B10008130910509F443C02C813D81223031058B
:101B20002CF48C819D81009771F0BCC02C813D818B
:101B30002230310509F45FC08C819D81833091058D
:101B400009F485C0AFC08B818130A1F4ABE3B0E074
:101B5000EBE3F0E08081482F8A81282F30E081E09C
:101B600090E0022E02C0880F991F0A94E2F7842B9E
:101B70008C9398C0ABE3B0E0EBE3F0E08081482FBA
:101B80008A81282F30E081E090E0022E02C0880F89
:101B9000991F0A94E2F7809584238C9383C08B81EC
:101BA0008130A1F4A8E3B0E0E8E3F0E08081482FC1
:101BB0008A81282F30E081E090E0022E02C0880F59
:101BC000991F0A94E2F7842B8C936CC0A8E3B0E0D1
:101BD000E8E3F0E08081482F8A81282F30E081E01F
:101BE00090E0022E02C0880F991F0A94E2F78095B8
:101BF00084238C9357C08B818130A1F4A5E3B0E09E
:101C0000E5E3F0E08081482F8A81282F30E081E0F1
:101C100090E0022E02C0880F991F0A94E2F7842BED
:101C20008C9340C0A5E3B0E0E5E3F0E08081482F6D
:101C30008A81282F30E081E090E0022E02C0880FD8
:101C4000991F0A94E2F7809584238C932BC08B8193
:101C50008130A1F4A2E3B0E0E2E3F0E08081482F1C
:101C60008A81282F30E081E090E0022E02C0880FA8
:101C7000991F0A94E2F7842B8C9314C0A2E3B0E07E
:101C8000E2E3F0E08081482F8A81282F30E081E074
:101C900090E0022E02C0880F991F0A94E2F7809507
:101CA00084238C930F900F900F900F900F90CF91F3
:101CB000DF910895DF93CF9300D000D00F92CDB77E
:101CC000DEB78A836B8319828B81883008F084C0E9
:101CD0008A81843008F080C08A81282F30E03D83DB
:101CE0002C834C815D814130510579F18C819D813E
:101CF0008230910534F42C813D812115310569F044
:101D00006BC04C815D8142305105B9F18C819D8160
:101D10008330910509F449C05FC0E9E3F0E08081B8
:101D2000282F30E08B81882F90E0A90102C05595C3
:101D300047958A95E2F7CA0181709070882319F05F
:101D400081E0898349C0198247C0E6E3F0E08081E1
:101D5000282F30E08B81882F90E0A90102C0559593
:101D600047958A95E2F7CA0181709070882319F02F
:101D700081E0898331C019822FC0E3E3F0E08081E4
:101D8000282F30E08B81882F90E0A90102C0559563
:101D900047958A95E2F7CA0181709070882319F0FF
:101DA00081E0898319C0198217C0E0E3F0E08081E7
:101DB000282F30E08B81882F90E0A90102C0559533
:101DC00047958A95E2F7CA0181709070882319F0CF
:101DD00081E0898301C0198289810F900F900F9053
:101DE0000F900F90CF91DF910895DF93CF9300D0A4
:101DF00000D0CDB7DEB789836A838981843090F5BE
:101E00008981282F30E03C832B838B819C8181301A
:101E10009105D1F02B813C81223031052CF48B814E
:101E20009C81009761F01EC02B813C8122303105DE
:101E300081F08B819C818330910581F013C0EAE3AE
:101E4000F0E08A8180830EC0E7E3F0E08A8180833E
:101E500009C0E4E3F0E08A81808304C0E1E3F0E0BC
:101E60008A8180830F900F900F900F90CF91DF9118
:101E70000895DF93CF9300D000D0CDB7DEB789832C
:101E80006A838981843090F58981282F30E03C83F2
:101E90002B838B819C8181309105D1F02B813C81FA
:101EA000223031052CF48B819C81009761F01EC09B
:101EB0002B813C812230310581F08B819C818330E4
:101EC000910581F013C0EBE3F0E08A8180830EC0BE
:101ED000E8E3F0E08A81808309C0E5E3F0E08A81ED
:101EE000808304C0E2E3F0E08A8180830F900F904A
:101EF0000F900F90CF91DF910895DF93CF9300D093
:101F000000D0CDB7DEB78A8319828A81843090F5FC
:101F10008A81282F30E03C832B838B819C81813008
:101F20009105D1F02B813C81223031052CF48B813D
:101F30009C81009761F01EC02B813C8122303105CD
:101F400081F08B819C818330910581F013C0E9E39E
:101F5000F0E0808189830EC0E6E3F0E08081898330
:101F600009C0E3E3F0E08081898304C0E0E3F0E0AE
:101F70008081898389810F900F900F900F90CF916E
:101F8000DF9108951F920F920FB60F9211242F9395
:101F90003F934F935F936F937F938F939F93AF93F1
:101FA000BF93EF93FF93DF93CF93CDB7DEB78091CD
:101FB000A1039091A203009729F0E091A103F09171
:101FC000A2030995CF91DF91FF91EF91BF91AF915E
:101FD0009F918F917F916F915F914F913F912F9141
:101FE0000F900FBE0F901F901895DF93CF9300D0E6
:101FF000CDB7DEB79A83898389819A819093A203B2
:102000008093A1030F900F90CF91DF910895DF93FC
:10201000CF93CDB7DEB7A7E3B0E0E7E3F0E0808190
:102020008B7F8C93A8E3B0E0E8E3F0E080818460EC
:102030008C93A4E5B0E0E4E5F0E0808180648C93CB
:10204000ABE5B0E0EBE5F0E0808180628C93CF916E
:10205000DF910895DF93CF9300D0CDB7DEB782E054
:1020600060E041E00E94840C82E061E041E00E9477
:10207000840C82E062E041E00E94840C82E063E034
:1020800041E00E94840C82E064E040E00E94840C05
:1020900082E065E040E00E94840C82E066E040E07F
:1020A0000E94840C82E064E041E00E946F0D82E0B7
:1020B00065E041E00E946F0D82E066E041E00E9431
:1020C0006F0D82E067E040E00E94840C82E067E0F0
:1020D00041E00E946F0D198239C082E0698140E0C1
:1020E0000E946F0D1A8227C08A81982F9C5F82E020
:1020F000692F0E945A0E8823D9F48A81982F9C5FF9
:1021000082E0692F0E945A0E8823B9F38981882FB3
:1021100090E0880F991F880F991F982F8A81890F47
:102120008F5F0E94AA100F900F90CF91DF910895BA
:102130008A818F5F8A838A818430B0F282E06981EC
:1021400041E00E946F0D89818F5F8983898184308E
:1021500020F2C1CFDF93CF9300D000D0CDB7DEB750
:102160008A8319828A81282F30E03C832B838B81DC
:102170009C818830910509F470C02B813C81293005
:1021800031055CF58B819C818430910509F459C03F
:102190002B813C81253031059CF48B819C818230E0
:1021A000910509F448C02B813C81233031050CF0A6
:1021B00045C08B819C818130910509F439C067C08D
:1021C0002B813C812630310509F441C08B819C81F3
:1021D000873091050CF03EC037C02B813C812C30FC
:1021E000310509F446C08B819C818D3091055CF4EA
:1021F0002B813C812A303105B1F18B819C818B3060
:102200009105A4F52DC02B813C812E303105B9F10B
:102210008B819C818E3091057CF12B813C812F300C
:10222000310579F18B819C818031910569F12FC055
:1022300087E089832EC088E089832BC089E0898369
:1022400028C08FE2898325C084E0898322C085E08D
:1022500089831FC086E089831CC08AE2898319C0F4
:1022600081E0898316C082E0898313C083E089837B
:1022700010C08DE289830DC08DE089830AC0198268
:1022800008C08DE3898305C08BE2898302C08A81FF
:10229000898389810F900F900F900F90CF91DF91DC
:1022A0000895DF93CF93CDB7DEB72E970FB6F8948E
:1022B000DEBF0FBECDBF81E060E041E00E94840C34
:1022C00081E061E041E00E94840C80E06FEF0E94B9
:1022D000F50E80E090E0A0EAB1E48B879C87AD87A3
:1022E000BE876B857C858D859E8520E030E04AEF3A
:1022F00054E40E941F02DC01CB018F839887A987D9
:10230000BA876F81788589859A8520E030E040E83A
:102310005FE30E94790388232CF481E090E09E83A0
:102320008D833FC06F81788589859A8520E03FEF56
:102330004FE757E40E94190318164CF56B857C850E
:102340008D859E8520E030E040E251E40E941F022E
:10235000DC01CB01BC01CD010E944900DC01CB01B5
:102360009E838D830FC088EC90E09C838B838B8150
:102370009C810197F1F79C838B838D819E810197CE
:102380009E838D838D819E81009769F714C06F8134
:10239000788589859A850E944900DC01CB019E835E
:1023A0008D838D819E819A83898389819A8101970A
:1023B000F1F79A83898388E30E94ED118CE00E94F3
:1023C000ED1181E00E94ED112E960FB6F894DEBF5C
:1023D0000FBECDBFCF91DF910895DF93CF93CDB7DF
:1023E000DEB7E9970FB6F894DEBF0FBECDBF89AF59
:1023F00081E060E040E00E946F0D80E090E0A0E8A6
:10240000BFE38DAB9EABAFABB8AF6DA97EA98FA973
:1024100098AD20E030E04AEF54E40E941F02DC0156
:10242000CB0189AB9AABABABBCAB69A97AA98BA941
:102430009CA920E030E040E85FE30E947903882314
:102440002CF481E090E098AB8FA73FC069A97AA9EE
:102450008BA99CA920E03FEF4FE757E40E941903A6
:1024600018164CF56DA97EA98FA998AD20E030E033
:1024700040E251E40E941F02DC01CB01BC01CD010E
:102480000E944900DC01CB0198AB8FA70FC088ECFC
:1024900090E09EA78DA78DA59EA50197F1F79EA719
:1024A0008DA78FA598A9019798AB8FA78FA598A9FD
:1024B000009769F714C069A97AA98BA99CA90E9401
:1024C0004900DC01CB0198AB8FA78FA598A99CA7E9
:1024D0008BA78BA59CA50197F1F79CA78BA781E003
:1024E00061E041E00E946F0D80E090E0A0E8BFE372
:1024F0008FA398A7A9A7BAA76FA178A589A59AA520
:1025000020E030E04AEF54E40E941F02DC01CB01DE
:102510008BA39CA3ADA3BEA36BA17CA18DA19EA107
:1025200020E030E040E85FE30E94790388232CF448
:1025300081E090E09AA389A33FC06BA17CA18DA10B
:102540009EA120E03FEF4FE757E40E9419031816C1
:102550004CF56FA178A589A59AA520E030E040E26E
:1025600051E40E941F02DC01CB01BC01CD010E949D
:102570004900DC01CB019AA389A30FC088EC90E04D
:1025800098A38F8F8F8D98A10197F1F798A38F8FC4
:1025900089A19AA101979AA389A389A19AA10097D9
:1025A00069F714C06BA17CA18DA19EA10E94490076
:1025B000DC01CB019AA389A389A19AA19E8F8D8F5B
:1025C0008D8D9E8D0197F1F79E8F8D8F80E069AD87
:1025D0000E94390F80E090E0A0E8BFE3898F9A8FD6
:1025E000AB8FBC8F698D7A8D8B8D9C8D20E030E018
:1025F0004AEF54E40E941F02DC01CB018D8B9E8BBD
:10260000AF8BB88F6D897E898F89988D20E030E0FF
:1026100040E85FE30E94790388232CF481E090E096
:102620009C8B8B8B3FC06D897E898F89988D20E034
:102630003FEF4FE757E40E94190318164CF5698DD8
:102640007A8D8B8D9C8D20E030E040E251E40E9439
:102650001F02DC01CB01BC01CD010E944900DC015D
:10266000CB019C8B8B8B0FC088EC90E09A8B898B75
:1026700089899A890197F1F79A8B898B8B899C8933
:1026800001979C8B8B8B8B899C89009769F714C071
:102690006D897E898F89988D0E944900DC01CB016C
:1026A0009C8B8B8B8B899C89988B8F878F85988946
:1026B0000197F1F7988B8F8781E061E040E00E94FD
:1026C0006F0D80E090E0A0E8BFE38B879C87AD872B
:1026D000BE876B857C858D859E8520E030E04AEF46
:1026E00054E40E941F02DC01CB018F839887A987E5
:1026F000BA876F81788589859A8520E030E040E847
:102700005FE30E94790388232CF481E090E09E83AC
:102710008D833FC06F81788589859A8520E03FEF62
:102720004FE757E40E94190318164CF56B857C851A
:102730008D859E8520E030E040E251E40E941F023A
:10274000DC01CB01BC01CD010E944900DC01CB01C1
:102750009E838D830FC088EC90E09C838B838B815C
:102760009C810197F1F79C838B838D819E810197DA
:102770009E838D838D819E81009769F714C06F8140
:10278000788589859A850E944900DC01CB019E836A
:102790008D838D819E819A83898389819A81019716
:1027A000F1F79A838983E9960FB6F894DEBF0FBEDE
:1027B000CDBFCF91DF910895DF93CF93CDB7DEB733
:1027C000E9970FB6F894DEBF0FBECDBF89AF81E0A9
:1027D00060E041E00E946F0D80E090E0A0E8BFE380
:1027E0008DAB9EABAFABB8AF6DA97EA98FA998ADED
:1027F00020E030E04AEF54E40E941F02DC01CB01EC
:1028000089AB9AABABABBCAB69A97AA98BA99CA9E4
:1028100020E030E040E85FE30E94790388232CF455
:1028200081E090E098AB8FA73FC069A97AA98BA9F6
:102830009CA920E03FEF4FE757E40E9419031816C8
:102840004CF56DA97EA98FA998AD20E030E040E25B
:1028500051E40E941F02DC01CB01BC01CD010E94AA
:102860004900DC01CB0198AB8FA70FC088EC90E04A
:102870009EA78DA78DA59EA50197F1F79EA78DA771
:102880008FA598A9019798AB8FA78FA598A90097B6
:1028900069F714C069A97AA98BA99CA90E9449006B
:1028A000DC01CB0198AB8FA78FA598A99CA78BA71C
:1028B0008BA59CA50197F1F79CA78BA781E061E010
:1028C00041E00E946F0D80E090E0A0E8BFE38FA39D
:1028D00098A7A9A7BAA76FA178A589A59AA520E06E
:1028E00030E04AEF54E40E941F02DC01CB018BA3CD
:1028F0009CA3ADA3BEA36BA17CA18DA19EA120E052
:1029000030E040E85FE30E94790388232CF481E003
:1029100090E09AA389A33FC06BA17CA18DA19EA149
:1029200020E03FEF4FE757E40E94190318164CF5DB
:102930006FA178A589A59AA520E030E040E251E496
:102940000E941F02DC01CB01BC01CD010E944900A5
:10295000DC01CB019AA389A30FC088EC90E098A377
:102960008F8F8F8D98A10197F1F798A38F8F89A1F1
:102970009AA101979AA389A389A19AA1009769F7BF
:1029800014C06BA17CA18DA19EA10E944900DC0115
:10299000CB019AA389A389A19AA19E8F8D8F8D8D3A
:1029A0009E8D0197F1F79E8F8D8F80E069AD0E941B
:1029B000390F80E090E0A0E8BFE3898F9A8FAB8F5A
:1029C000BC8F698D7A8D8B8D9C8D20E030E04AEF35
:1029D00054E40E941F02DC01CB018D8B9E8BAF8BD8
:1029E000B88F6D897E898F89988D20E030E040E82E
:1029F0005FE30E94790388232CF481E090E09C8BB4
:102A00008B8B3FC06D897E898F89988D20E03FEF49
:102A10004FE757E40E94190318164CF5698D7A8D1B
:102A20008B8D9C8D20E030E040E251E40E941F023B
:102A3000DC01CB01BC01CD010E944900DC01CB01CE
:102A40009C8B8B8B0FC088EC90E09A8B898B89894B
:102A50009A890197F1F79A8B898B8B899C890197C9
:102A60009C8B8B8B8B899C89009769F714C06D892F
:102A70007E898F89988D0E944900DC01CB019C8B57
:102A80008B8B8B899C89988B8F878F8598890197F1
:102A9000F1F7988B8F8781E061E040E00E946F0D35
:102AA00080E090E0A0E8BFE38B879C87AD87BE877E
:102AB0006B857C858D859E8520E030E04AEF54E46F
:102AC0000E941F02DC01CB018F839887A987BA87F8
:102AD0006F81788589859A8520E030E040E85FE362
:102AE0000E94790388232CF481E090E09E838D83FB
:102AF0003FC06F81788589859A8520E03FEF4FE759
:102B000057E40E94190318164CF56B857C858D855A
:102B10009E8520E030E040E251E40E941F02DC018B
:102B2000CB01BC01CD010E944900DC01CB019E8399
:102B30008D830FC088EC90E09C838B838B819C817C
:102B40000197F1F79C838B838D819E8101979E83F2
:102B50008D838D819E81009769F714C06F81788580
:102B600089859A850E944900DC01CB019E838D8373
:102B70008D819E819A83898389819A810197F1F75A
:102B80009A838983E9960FB6F894DEBF0FBECDBF56
:102B9000CF91DF910895DF93CF9300D00F92CDB7FF
:102BA000DEB79B838A8319820EC08981282F30E08B
:102BB0008A819B81FC01E20FF31F80810E94DC135C
:102BC00089818F5F89838981282F30E08A819B8169
:102BD000FC01E20FF31F8081882339F70F900F90DB
:102BE0000F90CF91DF910895DF93CF9300D000D065
:102BF0000F92CDB7DEB78A836B838A81282F30E0AE
:102C00003D832C838C819D8181309105C1F02C8185
:102C10003D81223031052CF48C819D81009761F03B
:102C200019C02C813D812230310569F08C819D8154
:102C30008330910561F00EC08B8189830BC08B813D
:102C4000805C898307C08B81805F898303C08B810F
:102C5000805B8983898180680E94ED110F900F90BD
:102C60000F900F900F90CF91DF910895DF93CF9346
:102C700000D000D0CDB7DEB789836A835C834B83F5
:102C800089816A810E94F4158B819C810E94CB15F9
:102C90000F900F900F900F90CF91DF910895DF93D9
:102CA000CF93CDB7DEB762970FB6F894DEBF0FBEF5
:102CB000CDBF9A8B898B89899A899E012F5F3F4F5F
:102CC000B9014AE050E00E94E31ACE0101960E9449
:102CD000CB1562960FB6F894DEBF0FBECDBFCF9175
:102CE000DF910895DF93CF93CDB7DEB781E00E94E7
:102CF000ED11CF91DF910895DF93CF9300D0CDB741
:102D0000DEB70E94A3058091B803282F30E03A83F4
:102D1000298389819A818530910509F459C02981D7
:102D20003A812630310504F589819A8182309105F6
:102D300009F445C029813A812330310554F4898151
:102D40009A810097B1F129813A8121303105A1F1B1
:102D5000DACF89819A8183309105A1F129813A8165
:102D60002430310591F1CFCF89819A818830910546
:102D7000C1F129813A81293031055CF489819A8138
:102D80008630910541F129813A812730310531F1B1
:102D9000BACF89819A818A30910549F129813A8196
:102DA0002A3031050CF189819A818B30910511F11E
:102DB000AACF0E94FD05A7CF0E941406A4CF0E94AF
:102DC0002B06A1CF0E943E069ECF0E944F069BCFAE
:102DD0000E94650698CF0E94810695CF0E949306B7
:102DE00092CF0E94A4068FCF0E94B5068CCF0E947E
:102DF000C60689CF0E94DA0686CF1F920F920FB6C1
:102E00000F9211242F933F934F935F936F937F9370
:102E10008F939F93AF93BF93EF93FF93DF93CF93E2
:102E2000CDB7DEB78091A3039091A403009729F05A
:102E3000E091A303F091A4030995CF91DF91FF9155
:102E4000EF91BF91AF919F918F917F916F915F9122
:102E50004F913F912F910F900FBE0F901F9018959B
:102E60001F920F920FB60F9211242F933F934F93FF
:102E70005F936F937F938F939F93AF93BF93EF93E2
:102E8000FF93DF93CF93CDB7DEB78091A5039091E9
:102E9000A603009729F0E091A503F091A6030995F8
:102EA000CF91DF91FF91EF91BF91AF919F918F9162
:102EB0007F916F915F914F913F912F910F900FBE36
:102EC0000F901F901895DF93CF93CDB7DEB72C9757
:102ED0000FB6F894DEBF0FBECDBF8F83CE01019633
:102EE00099878887E4E9F3E0FB87EA87F6E0FC87C7
:102EF000EA85FB8500808A859B8501969B878A876A
:102F0000E885F98500828885998501969987888763
:102F10009C8591509C87EC85EE2351F7CE0101965C
:102F20000E9405188F818093BA038091BA03882389
:102F3000E1F72C960FB6F894DEBF0FBECDBFCF9150
:102F4000DF910895DF93CF93CDB7DEB72C970FB6FF
:102F5000F894DEBF0FBECDBF8F83CE010196998757
:102F60008887EAE9F3E0FB87EA87F6E0FC87EA85F1
:102F7000FB8500808A859B8501969B878A87E885EB
:102F8000F9850082888599850196998788879C852F
:102F900091509C87EC85EE2351F7CE0101960E945B
:102FA00005188F818093BA038091BA038823E1F7D3
:102FB0002C960FB6F894DEBF0FBECDBFCF91DF9138
:102FC0000895DF93CF9300D00F92CDB7DEB78983FA
:102FD0008091B903282F30E03B832A838A819B812B
:102FE000009731F02A813B812430310529F007C058
:102FF00089810E94631703C089810E94A2170F90E4
:103000000F900F90CF91DF910895DF93CF9300D071
:1030100000D0CDB7DEB79A838983ACE4B0E0E98114
:10302000FA818281938111969C938E93E981FA8132
:103030008081282F30E03C832B838B819C810097FB
:1030400031F02B813C8124303105A9F03DC0AFE443
:10305000B0E0EFE4F0E08081982F9C7FE981FA8175
:103060008081892B8C93A9E5B0E0E9E5F0E08081CF
:1030700084608C9329C0EFE4F0E08CE88083AEE4B8
:10308000B0E0EEE4F0E08081282F277EE981FA812C
:103090008081882F90E0880F991F822B8C93AAE45F
:1030A000B0E0E981FA818481958111969C938E9399
:1030B00083E065E041E00E94840CA9E5B0E0E9E529
:1030C000F0E0808180618C93AEE4B0E0EEE4F0E06B
:1030D0008081982F987FE981FA818181892B8C9357
:1030E0000F900F900F900F90CF91DF910895DF9385
:1030F000CF93CDB7DEB7E9E5F0E01082EEE4F0E083
:103100001082ECE4F0E011821082EFE4F0E0108233
:10311000EEE4F0E01082EAE4F0E011821082E8E4EC
:10312000F0E011821082CF91DF910895DF93CF9369
:1031300000D0CDB7DEB79A838983E981FA81808197
:1031400091819093A4038093A303E981FA81828102
:1031500093819093A6038093A5030F900F90CF9136
:10316000DF9108951F920F920FB60F9211242F93A3
:103170003F934F935F936F937F938F939F93AF93FF
:10318000BF93EF93FF93DF93CF93CDB7DEB78091DB
:10319000A7039091A803009729F0E091A703F0916D
:1031A000A8030995CF91DF91FF91EF91BF91AF9166
:1031B0009F918F917F916F915F914F913F912F914F
:1031C0000F900FBE0F901F901895DF93CF9300D0F4
:1031D000CDB7DEB79A83898389819A819093A803BA
:1031E0008093A7030F900F90CF91DF910895DF9305
:1031F000CF93CDB7DEB72B970FB6F894DEBF0FBED7
:10320000CDBF9D838C83ABE2B0E0EBE2F0E0808148
:1032100082608C93EAE2F0E088E980831B8280E898
:103220008B83EC81FD818081282F30E03B872A87CA
:103230008A859B8582309105F1F02A853B85233074
:10324000310554F48A859B85009701F12A853B85D9
:103250002130310561F01AC08A859B858330910544
:1032600071F02A853B852730310569F00FC08B81CD
:1032700082608B830BC08B8184608B8307C08B81C2
:1032800086608B8303C08B8186608B83EC81FD819C
:103290008181282F30E03987288788859985823079
:1032A000910531F0288539852330310529F007C093
:1032B0008B8180628B8303C08B8180638B83EC81E5
:1032C000FD818281282F30E03F832E838E819F8174
:1032D000009741F02E813F812130310519F48B8117
:1032E00088608B83E0E4F0E08B818083EC81FD815A
:1032F00083819481A581B681880F991FAA1FBB1F66
:10330000880F991FAA1FBB1F880F991FAA1FBB1FD9
:103310009C01AD0180E092E1AAE7B0E0BC01CD01E3
:103320000E948A1ADA01C90101979A838983E0E42D
:10333000F0E089819A81892F99278083E9E2F0E082
:10334000898180832B960FB6F894DEBF0FBECDBF68
:10335000CF91DF910895DF93CF930F92CDB7DEB772
:103360008983EBE2F0E08081882F90E0807290709A
:103370000097B9F3ECE2F0E0898180830F90CF9160
:10338000DF910895DF93CF93CDB7DEB7EBE2F0E0A6
:1033900080818823DCF7ECE2F0E08081CF91DF913F
:1033A0000895DF93CF9300D00F92CDB7DEB79B8304
:1033B0008A8319820EC08981282F30E08A819B81FF
:1033C000FC01E20FF31F80810E94AB1989818F5F9E
:1033D00089838981282F30E08A819B81FC01E20F5B
:1033E000F31F8081882339F70F900F900F90CF91B2
:1033F000DF9108950F931F93DF93CF9300D00F9227
:10340000CDB7DEB79B838A8319828981282F30E06C
:103410008A819B818C01020F131F0E94C219F8013F
:1034200080830FC089818F5F89838981282F30E055
:103430008A819B818C01020F131F0E94C219F8011F
:1034400080838981282F30E08A819B81FC01E20FF3
:10345000F31F8081833231F78981282F30E08A8100
:103460009B81FC01E20FF31F10820F900F900F90D1
:10347000CF91DF911F910F910895DF93CF9300D0EB
:1034800000D0CDB7DEB79B838A836C8319820EC0D0
:103490008981282F30E08A819B81FC01E20FF31F94
:1034A00080810E94AB1989818F5F898399818C818A
:1034B000981770F30F900F900F900F90CF91DF91AE
:1034C00008950F931F93DF93CF9300D000D0CDB713
:1034D000DEB79B838A836C8319820FC08981282F72
:1034E00030E08A819B818C01020F131F0E94C21958
:1034F000F801808389818F5F898399818C819817F6
:1035000068F30F900F900F900F90CF91DF911F9164
:103510000F910895A1E21A2EAA1BBB1BFD010DC03D
:10352000AA1FBB1FEE1FFF1FA217B307E407F50773
:1035300020F0A21BB30BE40BF50B661F771F881F4F
:10354000991F1A9469F760957095809590959B01E5
:10355000AC01BD01CF0108952F923F924F925F922F
:103560006F927F928F929F92AF92BF92CF92DF9293
:10357000EF92FF920F931F93CF93DF93CDB7DEB7F8
:10358000CA1BDB0B0FB6F894DEBF0FBECDBF09948C
:103590002A88398848885F846E847D848C849B84E3
:1035A000AA84B984C884DF80EE80FD800C811B81F1
:1035B000AA81B981CE0FD11D0FB6F894DEBF0FBE20
:1035C000CDBFED010895FB019F01E8944230C4F0A6
:1035D0004532B4F44A3029F497FB1EF49095819556
:1035E0009F4F642F77270E94141B805D8A330CF055
:1035F000895D8193CB010097A1F716F45DE25193A9
:103600001082C9010C94041BDC01FC01672F71912D
:103610007723E1F7329704C07C916D9370836291B8
:10362000AE17BF07C8F30895AA1BBB1B51E107C023
:10363000AA1FBB1FA617B70710F0A61BB70B881F42
:10364000991F5A95A9F780959095BC01CD010895D1
:04365000F894FFCF1C
:10365400486921205468697320697320596F757211
:103664000046697273742054696D652048657265FB
:10367400210049742773206120446F6F72204C6FBE
:10368400636B00536563757269747920537973743D
:10369400656D2E002A2A20596F757220506173734C
:1036A400776F72640053686F756C64206265205292
:1036B400616E67656400696E202831303030302DCA
:1036C40039393939392900616E6420626520352D14
:1036D4006469676974732E002A2A2048657265201C
:1036E400576520476F202A2A004E6F772C20557388
:1036F4006520746865204B65790050616420746F9F
:1037040020456E7465722074686500506173737728
:103714006F72643A202020202020200020204E6F49
:10372400772C20636F6E6669726D20200020596FBC
:1037340075722050617373776F72642120002020AA
:103744002020202020202020202020202020002A8B
:103754002A20537563637573736564202A2A2A00CB
:103764002020596F757220646F6F72206973202056
:10377400002020536563757265642077697468203E
:10378400200020207468652070617373776F726401
:103794002020002A2A2A20204661696C65642020A2
:1037A4002A2A2A0050617373776F726473206172DE
:1037B400656E2774004D61746368696E67212052D9
:1037C4006574797065005468652050617373776F10
:1037D4007264202E2E2E0057656C636F6D65204237
:1037E40061636B2120546F004F70656E20746865AF
:1037F40020446F6F722C202000506C65617365202B
:10380400456E746572207468650050726573732028
:1038140028202B202920746F3A20004F70656E20D9
:1038240074686520446F6F722020200050726573A5
:10383400732028202D202920746F3A2000436861CA
:103844006E67652050617373776F72642000205334
:103854007572652C2054686520446F6F72200020B7
:103864004973204F70656E696E67204E6F77200034
:1038740020666F72203135205365636F6E64732048
:1038840000202A54686520446F6F722057696C6C5D
:103894002000204B656570204F70656E204D6F646D
:1038A4006520002020666F722033205365636F6E9D
:1038B400647320002020202048757272792055708E
:1038C4002120202000204F6F70732C205468652025
:1038D400446F6F72200020697320436C6F73696EAC
:1038E40067204E6F772000496E76616C69642050C2
:1038F400617373776F726400506C65617365204601
:103904006F63757320616E6400456E746572207414
:103914006865205269676874200050617373776F1B
:10392400726420416761696E20210053757370656C
:103934006374656420547269616C73003D3D3D3D60
:103944003D3D3D3D3D3D3D3D3D3D3D3D0054686576
:1039540020446F6F722077696C6C206265004C6F35
:10396400636B656420666F722031204D696E0000C0
:103974000000000000000003020080250000000495
:10398400ED8500000004ED85000004040000127AB7
:00000001FF
